{
  "_format": "hh-sol-artifact-1",
  "contractName": "PaymentRecordNFT",
  "sourceName": "contracts/PaymentRecordNFT.sol",
  "abi": [
    {
      "inputs": [],
      "stateMutability": "nonpayable",
      "type": "constructor"
    },
    {
      "inputs": [],
      "name": "Soulbound",
      "type": "error"
    },
    {
      "anonymous": false,
      "inputs": [
        {
          "indexed": true,
          "internalType": "address",
          "name": "owner",
          "type": "address"
        },
        {
          "indexed": true,
          "internalType": "address",
          "name": "approved",
          "type": "address"
        },
        {
          "indexed": true,
          "internalType": "uint256",
          "name": "tokenId",
          "type": "uint256"
        }
      ],
      "name": "Approval",
      "type": "event"
    },
    {
      "anonymous": false,
      "inputs": [
        {
          "indexed": true,
          "internalType": "address",
          "name": "owner",
          "type": "address"
        },
        {
          "indexed": true,
          "internalType": "address",
          "name": "operator",
          "type": "address"
        },
        {
          "indexed": false,
          "internalType": "bool",
          "name": "approved",
          "type": "bool"
        }
      ],
      "name": "ApprovalForAll",
      "type": "event"
    },
    {
      "anonymous": false,
      "inputs": [
        {
          "indexed": true,
          "internalType": "uint256",
          "name": "tokenId",
          "type": "uint256"
        },
        {
          "indexed": true,
          "internalType": "address",
          "name": "tenant",
          "type": "address"
        },
        {
          "indexed": true,
          "internalType": "bytes32",
          "name": "paymentRecordId",
          "type": "bytes32"
        },
        {
          "indexed": false,
          "internalType": "bytes32",
          "name": "leaseId",
          "type": "bytes32"
        },
        {
          "indexed": false,
          "internalType": "uint256",
          "name": "amountUsdCents",
          "type": "uint256"
        },
        {
          "indexed": false,
          "internalType": "uint8",
          "name": "statusCode",
          "type": "uint8"
        }
      ],
      "name": "CertificateIssued",
      "type": "event"
    },
    {
      "anonymous": false,
      "inputs": [
        {
          "indexed": true,
          "internalType": "address",
          "name": "previousOwner",
          "type": "address"
        },
        {
          "indexed": true,
          "internalType": "address",
          "name": "newOwner",
          "type": "address"
        }
      ],
      "name": "OwnershipTransferred",
      "type": "event"
    },
    {
      "anonymous": false,
      "inputs": [
        {
          "indexed": true,
          "internalType": "address",
          "name": "from",
          "type": "address"
        },
        {
          "indexed": true,
          "internalType": "address",
          "name": "to",
          "type": "address"
        },
        {
          "indexed": true,
          "internalType": "uint256",
          "name": "tokenId",
          "type": "uint256"
        }
      ],
      "name": "Transfer",
      "type": "event"
    },
    {
      "inputs": [
        {
          "internalType": "address",
          "name": "",
          "type": "address"
        },
        {
          "internalType": "uint256",
          "name": "",
          "type": "uint256"
        }
      ],
      "name": "approve",
      "outputs": [],
      "stateMutability": "pure",
      "type": "function"
    },
    {
      "inputs": [
        {
          "internalType": "address",
          "name": "owner",
          "type": "address"
        }
      ],
      "name": "balanceOf",
      "outputs": [
        {
          "internalType": "uint256",
          "name": "",
          "type": "uint256"
        }
      ],
      "stateMutability": "view",
      "type": "function"
    },
    {
      "inputs": [
        {
          "internalType": "uint256",
          "name": "tokenId",
          "type": "uint256"
        }
      ],
      "name": "getApproved",
      "outputs": [
        {
          "internalType": "address",
          "name": "",
          "type": "address"
        }
      ],
      "stateMutability": "view",
      "type": "function"
    },
    {
      "inputs": [
        {
          "internalType": "uint256",
          "name": "tokenId",
          "type": "uint256"
        }
      ],
      "name": "getPaymentRecord",
      "outputs": [
        {
          "components": [
            {
              "internalType": "bytes32",
              "name": "paymentRecordId",
              "type": "bytes32"
            },
            {
              "internalType": "bytes32",
              "name": "leaseId",
              "type": "bytes32"
            },
            {
              "internalType": "uint256",
              "name": "amountUsdCents",
              "type": "uint256"
            },
            {
              "internalType": "uint8",
              "name": "statusCode",
              "type": "uint8"
            },
            {
              "internalType": "uint64",
              "name": "timestamp",
              "type": "uint64"
            },
            {
              "internalType": "bytes32",
              "name": "txRef",
              "type": "bytes32"
            }
          ],
          "internalType": "struct PaymentRecordNFT.PaymentRecord",
          "name": "",
          "type": "tuple"
        }
      ],
      "stateMutability": "view",
      "type": "function"
    },
    {
      "inputs": [
        {
          "internalType": "uint256",
          "name": "tokenId",
          "type": "uint256"
        }
      ],
      "name": "getPaymentRecordFields",
      "outputs": [
        {
          "internalType": "bytes32",
          "name": "paymentRecordId",
          "type": "bytes32"
        },
        {
          "internalType": "bytes32",
          "name": "leaseId",
          "type": "bytes32"
        },
        {
          "internalType": "uint256",
          "name": "amountUsdCents",
          "type": "uint256"
        },
        {
          "internalType": "uint8",
          "name": "statusCode",
          "type": "uint8"
        },
        {
          "internalType": "uint64",
          "name": "timestamp",
          "type": "uint64"
        },
        {
          "internalType": "bytes32",
          "name": "txRef",
          "type": "bytes32"
        }
      ],
      "stateMutability": "view",
      "type": "function"
    },
    {
      "inputs": [
        {
          "internalType": "address",
          "name": "tenant",
          "type": "address"
        }
      ],
      "name": "getPaymentTokenIds",
      "outputs": [
        {
          "internalType": "uint256[]",
          "name": "",
          "type": "uint256[]"
        }
      ],
      "stateMutability": "view",
      "type": "function"
    },
    {
      "inputs": [
        {
          "internalType": "uint256",
          "name": "tokenId",
          "type": "uint256"
        }
      ],
      "name": "getScoreInputs",
      "outputs": [
        {
          "internalType": "uint256",
          "name": "amountUsdCents",
          "type": "uint256"
        },
        {
          "internalType": "uint8",
          "name": "statusCode",
          "type": "uint8"
        },
        {
          "internalType": "uint64",
          "name": "timestamp",
          "type": "uint64"
        }
      ],
      "stateMutability": "view",
      "type": "function"
    },
    {
      "inputs": [
        {
          "internalType": "address",
          "name": "owner",
          "type": "address"
        },
        {
          "internalType": "address",
          "name": "operator",
          "type": "address"
        }
      ],
      "name": "isApprovedForAll",
      "outputs": [
        {
          "internalType": "bool",
          "name": "",
          "type": "bool"
        }
      ],
      "stateMutability": "view",
      "type": "function"
    },
    {
      "inputs": [
        {
          "internalType": "address",
          "name": "tenant",
          "type": "address"
        },
        {
          "internalType": "bytes32",
          "name": "paymentRecordId",
          "type": "bytes32"
        },
        {
          "internalType": "bytes32",
          "name": "leaseId",
          "type": "bytes32"
        },
        {
          "internalType": "uint256",
          "name": "amountUsdCents",
          "type": "uint256"
        },
        {
          "internalType": "uint8",
          "name": "statusCode",
          "type": "uint8"
        },
        {
          "internalType": "bytes32",
          "name": "txRef",
          "type": "bytes32"
        }
      ],
      "name": "mintCertificate",
      "outputs": [
        {
          "internalType": "uint256",
          "name": "tokenId",
          "type": "uint256"
        }
      ],
      "stateMutability": "nonpayable",
      "type": "function"
    },
    {
      "inputs": [],
      "name": "name",
      "outputs": [
        {
          "internalType": "string",
          "name": "",
          "type": "string"
        }
      ],
      "stateMutability": "view",
      "type": "function"
    },
    {
      "inputs": [],
      "name": "nextTokenId",
      "outputs": [
        {
          "internalType": "uint256",
          "name": "",
          "type": "uint256"
        }
      ],
      "stateMutability": "view",
      "type": "function"
    },
    {
      "inputs": [],
      "name": "owner",
      "outputs": [
        {
          "internalType": "address",
          "name": "",
          "type": "address"
        }
      ],
      "stateMutability": "view",
      "type": "function"
    },
    {
      "inputs": [
        {
          "internalType": "uint256",
          "name": "tokenId",
          "type": "uint256"
        }
      ],
      "name": "ownerOf",
      "outputs": [
        {
          "internalType": "address",
          "name": "",
          "type": "address"
        }
      ],
      "stateMutability": "view",
      "type": "function"
    },
    {
      "inputs": [],
      "name": "renounceOwnership",
      "outputs": [],
      "stateMutability": "nonpayable",
      "type": "function"
    },
    {
      "inputs": [
        {
          "internalType": "address",
          "name": "from",
          "type": "address"
        },
        {
          "internalType": "address",
          "name": "to",
          "type": "address"
        },
        {
          "internalType": "uint256",
          "name": "tokenId",
          "type": "uint256"
        }
      ],
      "name": "safeTransferFrom",
      "outputs": [],
      "stateMutability": "nonpayable",
      "type": "function"
    },
    {
      "inputs": [
        {
          "internalType": "address",
          "name": "from",
          "type": "address"
        },
        {
          "internalType": "address",
          "name": "to",
          "type": "address"
        },
        {
          "internalType": "uint256",
          "name": "tokenId",
          "type": "uint256"
        },
        {
          "internalType": "bytes",
          "name": "data",
          "type": "bytes"
        }
      ],
      "name": "safeTransferFrom",
      "outputs": [],
      "stateMutability": "nonpayable",
      "type": "function"
    },
    {
      "inputs": [
        {
          "internalType": "address",
          "name": "",
          "type": "address"
        },
        {
          "internalType": "bool",
          "name": "",
          "type": "bool"
        }
      ],
      "name": "setApprovalForAll",
      "outputs": [],
      "stateMutability": "pure",
      "type": "function"
    },
    {
      "inputs": [
        {
          "internalType": "bytes4",
          "name": "interfaceId",
          "type": "bytes4"
        }
      ],
      "name": "supportsInterface",
      "outputs": [
        {
          "internalType": "bool",
          "name": "",
          "type": "bool"
        }
      ],
      "stateMutability": "view",
      "type": "function"
    },
    {
      "inputs": [],
      "name": "symbol",
      "outputs": [
        {
          "internalType": "string",
          "name": "",
          "type": "string"
        }
      ],
      "stateMutability": "view",
      "type": "function"
    },
    {
      "inputs": [
        {
          "internalType": "uint256",
          "name": "tokenId",
          "type": "uint256"
        }
      ],
      "name": "tokenURI",
      "outputs": [
        {
          "internalType": "string",
          "name": "",
          "type": "string"
        }
      ],
      "stateMutability": "view",
      "type": "function"
    },
    {
      "inputs": [
        {
          "internalType": "address",
          "name": "from",
          "type": "address"
        },
        {
          "internalType": "address",
          "name": "to",
          "type": "address"
        },
        {
          "internalType": "uint256",
          "name": "tokenId",
          "type": "uint256"
        }
      ],
      "name": "transferFrom",
      "outputs": [],
      "stateMutability": "nonpayable",
      "type": "function"
    },
    {
      "inputs": [
        {
          "internalType": "address",
          "name": "newOwner",
          "type": "address"
        }
      ],
      "name": "transferOwnership",
      "outputs": [],
      "stateMutability": "nonpayable",
      "type": "function"
    }
  ],
  "bytecode": "0x60806040523480156200001157600080fd5b506040518060400160405280601e81526020017f52656e744c6564676572205061796d656e74204365727469666963617465000081525060405180604001604052806004815260200163524c504360e01b8152508160009081620000769190620001a5565b506001620000858282620001a5565b505050620000a26200009c620000a860201b60201c565b620000ac565b62000271565b3390565b600680546001600160a01b038381166001600160a01b0319831681179093556040519116919082907f8be0079c531659141344cd1fd0a4f28419497f9722a3daafe3b4186f6b6457e090600090a35050565b634e487b7160e01b600052604160045260246000fd5b600181811c908216806200012957607f821691505b6020821081036200014a57634e487b7160e01b600052602260045260246000fd5b50919050565b601f821115620001a0576000816000526020600020601f850160051c810160208610156200017b5750805b601f850160051c820191505b818110156200019c5782815560010162000187565b5050505b505050565b81516001600160401b03811115620001c157620001c1620000fe565b620001d981620001d2845462000114565b8462000150565b602080601f831160018114620002115760008415620001f85750858301515b600019600386901b1c1916600185901b1785556200019c565b600085815260208120601f198616915b82811015620002425788860151825594840194600190910190840162000221565b5085821015620002615787850151600019600388901b60f8161c191681555b5050505050600190811b01905550565b61195280620002816000396000f3fe608060405234801561001057600080fd5b50600436106101425760003560e01c80638da5cb5b116100b8578063bf3088221161007c578063bf308822146102c3578063c1d446be14610310578063c87b56dd1461037c578063e178a53a1461038f578063e985e9c5146103a2578063f2fde38b146103de57600080fd5b80638da5cb5b1461024f57806395d89b4114610260578063a22cb46514610268578063a4a1328c14610276578063b88d4fde146102b057600080fd5b806342842e0e1161010a57806342842e0e146101d75780636352211e146101ea57806370a08231146101fd578063715018a61461021e57806375794a3c1461022657806389d255261461022f57600080fd5b806301ffc9a71461014757806306fdde031461016f578063081812fc14610184578063095ea7b3146101af57806323b872dd146101c4575b600080fd5b61015a6101553660046113ee565b6103f1565b60405190151581526020015b60405180910390f35b610177610443565b604051610166919061145b565b61019761019236600461146e565b6104d5565b6040516001600160a01b039091168152602001610166565b6101c26101bd3660046114a3565b6104fc565b005b6101c26101d23660046114cd565b610515565b6101c26101e53660046114cd565b610554565b6101976101f836600461146e565b61056f565b61021061020b366004611509565b6105cf565b604051908152602001610166565b6101c2610655565b61021060075481565b61024261023d366004611509565b610669565b6040516101669190611524565b6006546001600160a01b0316610197565b6101776106d5565b6101c26101bd366004611568565b61028961028436600461146e565b6106e4565b6040805193845260ff909216602084015267ffffffffffffffff1690820152606001610166565b6101c26102be3660046115ba565b610783565b6102d66102d136600461146e565b6107bb565b6040805196875260208701959095529385019290925260ff16606084015267ffffffffffffffff16608083015260a082015260c001610166565b61032361031e36600461146e565b610861565b6040516101669190600060c08201905082518252602083015160208301526040830151604083015260ff606084015116606083015267ffffffffffffffff608084015116608083015260a083015160a083015292915050565b61017761038a36600461146e565b61091f565b61021061039d366004611696565b610993565b61015a6103b03660046116f8565b6001600160a01b03918216600090815260056020908152604080832093909416825291909152205460ff1690565b6101c26103ec366004611509565b610bad565b60006001600160e01b031982166380ac58cd60e01b148061042257506001600160e01b03198216635b5e139f60e01b145b8061043d57506301ffc9a760e01b6001600160e01b03198316145b92915050565b6060600080546104529061172b565b80601f016020809104026020016040519081016040528092919081815260200182805461047e9061172b565b80156104cb5780601f106104a0576101008083540402835291602001916104cb565b820191906000526020600020905b8154815290600101906020018083116104ae57829003601f168201915b5050505050905090565b60006104e082610c26565b506000908152600460205260409020546001600160a01b031690565b60405163a4420a9560e01b815260040160405180910390fd5b61051f3382610c76565b6105445760405162461bcd60e51b815260040161053b90611765565b60405180910390fd5b61054f838383610cf5565b505050565b61054f83838360405180602001604052806000815250610783565b6000818152600260205260408120546001600160a01b03168061043d5760405162461bcd60e51b8152602060048201526018602482015277115490cdcc8c4e881a5b9d985b1a59081d1bdad95b88125160421b604482015260640161053b565b60006001600160a01b0382166106395760405162461bcd60e51b815260206004820152602960248201527f4552433732313a2061646472657373207a65726f206973206e6f7420612076616044820152683634b21037bbb732b960b91b606482015260840161053b565b506001600160a01b031660009081526003602052604090205490565b61065d610e66565b6106676000610ec0565b565b6001600160a01b0381166000908152600960209081526040918290208054835181840281018401909452808452606093928301828280156106c957602002820191906000526020600020905b8154815260200190600101908083116106b5575b50505050509050919050565b6060600180546104529061172b565b60008060006106f284610f12565b61070e5760405162461bcd60e51b815260040161053b906117b2565b505050600090815260086020908152604091829020825160c081018452815481526001820154928101929092526002810154928201839052600381015460ff81166060840181905261010090910467ffffffffffffffff166080840181905260049092015460a0909301929092529192909190565b61078d3383610c76565b6107a95760405162461bcd60e51b815260040161053b90611765565b6107b584848484610f2f565b50505050565b6000806000806000806107cd87610f12565b6107e95760405162461bcd60e51b815260040161053b906117b2565b5050506000938452505060086020908152604092839020835160c081018552815480825260018301549382018490526002830154958201869052600383015460ff81166060840181905261010090910467ffffffffffffffff166080840181905260049094015460a090930183905290969395945092565b6040805160c081018252600080825260208201819052918101829052606081018290526080810182905260a081019190915261089c82610f12565b6108b85760405162461bcd60e51b815260040161053b906117b2565b50600090815260086020908152604091829020825160c08101845281548152600182015492810192909252600281015492820192909252600382015460ff81166060830152610100900467ffffffffffffffff16608082015260049091015460a082015290565b606061092a82610c26565b600061094160408051602081019091526000815290565b90506000815111610961576040518060200160405280600081525061098c565b8061096b84610f62565b60405160200161097c9291906117db565b6040516020818303038152906040525b9392505050565b600061099d610e66565b6001600160a01b0387166109e55760405162461bcd60e51b815260206004820152600f60248201526e1d195b985b9d081c995c5d5a5c9959608a1b604482015260640161053b565b60008411610a275760405162461bcd60e51b815260206004820152600f60248201526e185b5bdd5b9d081c995c5d5a5c9959608a1b604482015260640161053b565b8260ff1660011480610a3c57508260ff166002145b610a795760405162461bcd60e51b815260206004820152600e60248201526d696e76616c69642073746174757360901b604482015260640161053b565b600160076000828254610a8c919061180a565b90915550506007549050610aa08782610ff5565b6040805160c081018252878152602080820188815282840188815260ff888116606080870182815267ffffffffffffffff42811660808a0190815260a08a018d815260008d815260088b528c81209b518c5598516001808d0191909155975160028c0155925160038b01805492519093166101000268ffffffffffffffffff199092169616959095179490941790935591516004909601959095556001600160a01b038d16808452600985528684208054938401815584529284902090910186905584518a815292830189905293820192909252889284917f2740cfefaad24718574ddf3ae2d5ddbb76b3462cc18c7a100a66686c8990828f910160405180910390a49695505050505050565b610bb5610e66565b6001600160a01b038116610c1a5760405162461bcd60e51b815260206004820152602660248201527f4f776e61626c653a206e6577206f776e657220697320746865207a65726f206160448201526564647265737360d01b606482015260840161053b565b610c2381610ec0565b50565b610c2f81610f12565b610c235760405162461bcd60e51b8152602060048201526018602482015277115490cdcc8c4e881a5b9d985b1a59081d1bdad95b88125160421b604482015260640161053b565b600080610c828361056f565b9050806001600160a01b0316846001600160a01b03161480610cc957506001600160a01b0380821660009081526005602090815260408083209388168352929052205460ff165b80610ced5750836001600160a01b0316610ce2846104d5565b6001600160a01b0316145b949350505050565b826001600160a01b0316610d088261056f565b6001600160a01b031614610d2e5760405162461bcd60e51b815260040161053b9061182b565b6001600160a01b038216610d905760405162461bcd60e51b8152602060048201526024808201527f4552433732313a207472616e7366657220746f20746865207a65726f206164646044820152637265737360e01b606482015260840161053b565b610d9d8383836001611013565b826001600160a01b0316610db08261056f565b6001600160a01b031614610dd65760405162461bcd60e51b815260040161053b9061182b565b600081815260046020908152604080832080546001600160a01b03199081169091556001600160a01b0387811680865260038552838620805460001901905590871680865283862080546001019055868652600290945282852080549092168417909155905184937fddf252ad1be2c89b69c2b068fc378daa952ba7f163c4a11628f55a4df523b3ef91a4505050565b6006546001600160a01b031633146106675760405162461bcd60e51b815260206004820181905260248201527f4f776e61626c653a2063616c6c6572206973206e6f7420746865206f776e6572604482015260640161053b565b600680546001600160a01b038381166001600160a01b0319831681179093556040519116919082907f8be0079c531659141344cd1fd0a4f28419497f9722a3daafe3b4186f6b6457e090600090a35050565b6000908152600260205260409020546001600160a01b0316151590565b610f3a848484610cf5565b610f4684848484611051565b6107b55760405162461bcd60e51b815260040161053b90611870565b60606000610f6f83611152565b600101905060008167ffffffffffffffff811115610f8f57610f8f6115a4565b6040519080825280601f01601f191660200182016040528015610fb9576020820181803683370190505b5090508181016020015b600019016f181899199a1a9b1b9c1cb0b131b232b360811b600a86061a8153600a8504945084610fc357509392505050565b61100f82826040518060200160405280600081525061122a565b5050565b6001600160a01b0384161580159061103357506001600160a01b03831615155b156107b55760405163a4420a9560e01b815260040160405180910390fd5b60006001600160a01b0384163b1561114757604051630a85bd0160e11b81526001600160a01b0385169063150b7a02906110959033908990889088906004016118c2565b6020604051808303816000875af19250505080156110d0575060408051601f3d908101601f191682019092526110cd918101906118ff565b60015b61112d573d8080156110fe576040519150601f19603f3d011682016040523d82523d6000602084013e611103565b606091505b5080516000036111255760405162461bcd60e51b815260040161053b90611870565b805181602001fd5b6001600160e01b031916630a85bd0160e11b149050610ced565b506001949350505050565b60008072184f03e93ff9f4daa797ed6e38ed64bf6a1f0160401b83106111915772184f03e93ff9f4daa797ed6e38ed64bf6a1f0160401b830492506040015b6d04ee2d6d415b85acef810000000083106111bd576d04ee2d6d415b85acef8100000000830492506020015b662386f26fc1000083106111db57662386f26fc10000830492506010015b6305f5e10083106111f3576305f5e100830492506008015b612710831061120757612710830492506004015b60648310611219576064830492506002015b600a831061043d5760010192915050565b611234838361125d565b6112416000848484611051565b61054f5760405162461bcd60e51b815260040161053b90611870565b6001600160a01b0382166112b35760405162461bcd60e51b815260206004820181905260248201527f4552433732313a206d696e7420746f20746865207a65726f2061646472657373604482015260640161053b565b6112bc81610f12565b156113095760405162461bcd60e51b815260206004820152601c60248201527f4552433732313a20746f6b656e20616c7265616479206d696e74656400000000604482015260640161053b565b611317600083836001611013565b61132081610f12565b1561136d5760405162461bcd60e51b815260206004820152601c60248201527f4552433732313a20746f6b656e20616c7265616479206d696e74656400000000604482015260640161053b565b6001600160a01b038216600081815260036020908152604080832080546001019055848352600290915280822080546001600160a01b0319168417905551839291907fddf252ad1be2c89b69c2b068fc378daa952ba7f163c4a11628f55a4df523b3ef908290a45050565b6001600160e01b031981168114610c2357600080fd5b60006020828403121561140057600080fd5b813561098c816113d8565b60005b8381101561142657818101518382015260200161140e565b50506000910152565b6000815180845261144781602086016020860161140b565b601f01601f19169290920160200192915050565b60208152600061098c602083018461142f565b60006020828403121561148057600080fd5b5035919050565b80356001600160a01b038116811461149e57600080fd5b919050565b600080604083850312156114b657600080fd5b6114bf83611487565b946020939093013593505050565b6000806000606084860312156114e257600080fd5b6114eb84611487565b92506114f960208501611487565b9150604084013590509250925092565b60006020828403121561151b57600080fd5b61098c82611487565b6020808252825182820181905260009190848201906040850190845b8181101561155c57835183529284019291840191600101611540565b50909695505050505050565b6000806040838503121561157b57600080fd5b61158483611487565b91506020830135801515811461159957600080fd5b809150509250929050565b634e487b7160e01b600052604160045260246000fd5b600080600080608085870312156115d057600080fd5b6115d985611487565b93506115e760208601611487565b925060408501359150606085013567ffffffffffffffff8082111561160b57600080fd5b818701915087601f83011261161f57600080fd5b813581811115611631576116316115a4565b604051601f8201601f19908116603f01168101908382118183101715611659576116596115a4565b816040528281528a602084870101111561167257600080fd5b82602086016020830137600060208483010152809550505050505092959194509250565b60008060008060008060c087890312156116af57600080fd5b6116b887611487565b9550602087013594506040870135935060608701359250608087013560ff811681146116e357600080fd5b8092505060a087013590509295509295509295565b6000806040838503121561170b57600080fd5b61171483611487565b915061172260208401611487565b90509250929050565b600181811c9082168061173f57607f821691505b60208210810361175f57634e487b7160e01b600052602260045260246000fd5b50919050565b6020808252602d908201527f4552433732313a2063616c6c6572206973206e6f7420746f6b656e206f776e6560408201526c1c881bdc88185c1c1c9bdd9959609a1b606082015260800190565b6020808252600f908201526e1d1bdad95b881b9bdd08199bdd5b99608a1b604082015260600190565b600083516117ed81846020880161140b565b83519083019061180181836020880161140b565b01949350505050565b8082018082111561043d57634e487b7160e01b600052601160045260246000fd5b60208082526025908201527f4552433732313a207472616e736665722066726f6d20696e636f72726563742060408201526437bbb732b960d91b606082015260800190565b60208082526032908201527f4552433732313a207472616e7366657220746f206e6f6e20455243373231526560408201527131b2b4bb32b91034b6b83632b6b2b73a32b960711b606082015260800190565b6001600160a01b03858116825284166020820152604081018390526080606082018190526000906118f59083018461142f565b9695505050505050565b60006020828403121561191157600080fd5b815161098c816113d856fea2646970667358221220440f2be4be126d98ce987a1c009f126451151de4eec7ec657fa5bcb5ac88752d64736f6c63430008180033",
  "linkReferences": {},
  "deployedLinkReferences": {}
}