{
  "_format": "hh-sol-artifact-1",
  "contractName": "LeaseRegistry",
  "sourceName": "contracts/LeaseRegistry.sol",
  "abi": [
    {
      "anonymous": false,
      "inputs": [
        {
          "indexed": true,
          "internalType": "bytes32",
          "name": "leaseId",
          "type": "bytes32"
        },
        {
          "indexed": true,
          "internalType": "address",
          "name": "tenant",
          "type": "address"
        },
        {
          "indexed": true,
          "internalType": "address",
          "name": "landlord",
          "type": "address"
        },
        {
          "indexed": false,
          "internalType": "uint256",
          "name": "monthlyRentUsdCents",
          "type": "uint256"
        },
        {
          "indexed": false,
          "internalType": "uint8",
          "name": "dueDay",
          "type": "uint8"
        }
      ],
      "name": "LeaseRegistered",
      "type": "event"
    },
    {
      "inputs": [
        {
          "internalType": "bytes32",
          "name": "leaseId",
          "type": "bytes32"
        }
      ],
      "name": "getLease",
      "outputs": [
        {
          "internalType": "address",
          "name": "tenant",
          "type": "address"
        },
        {
          "internalType": "address",
          "name": "landlord",
          "type": "address"
        },
        {
          "internalType": "uint256",
          "name": "monthlyRentUsdCents",
          "type": "uint256"
        },
        {
          "internalType": "uint8",
          "name": "dueDay",
          "type": "uint8"
        },
        {
          "internalType": "uint64",
          "name": "startTimestamp",
          "type": "uint64"
        },
        {
          "internalType": "bool",
          "name": "active",
          "type": "bool"
        }
      ],
      "stateMutability": "view",
      "type": "function"
    },
    {
      "inputs": [
        {
          "internalType": "bytes32",
          "name": "leaseId",
          "type": "bytes32"
        }
      ],
      "name": "getLeaseStruct",
      "outputs": [
        {
          "components": [
            {
              "internalType": "address",
              "name": "tenant",
              "type": "address"
            },
            {
              "internalType": "address",
              "name": "landlord",
              "type": "address"
            },
            {
              "internalType": "uint256",
              "name": "monthlyRentUsdCents",
              "type": "uint256"
            },
            {
              "internalType": "uint8",
              "name": "dueDay",
              "type": "uint8"
            },
            {
              "internalType": "uint64",
              "name": "startTimestamp",
              "type": "uint64"
            },
            {
              "internalType": "bool",
              "name": "active",
              "type": "bool"
            }
          ],
          "internalType": "struct LeaseRegistry.Lease",
          "name": "",
          "type": "tuple"
        }
      ],
      "stateMutability": "view",
      "type": "function"
    },
    {
      "inputs": [
        {
          "internalType": "address",
          "name": "tenant",
          "type": "address"
        }
      ],
      "name": "getTenantLeases",
      "outputs": [
        {
          "internalType": "bytes32[]",
          "name": "",
          "type": "bytes32[]"
        }
      ],
      "stateMutability": "view",
      "type": "function"
    },
    {
      "inputs": [
        {
          "internalType": "address",
          "name": "tenant",
          "type": "address"
        },
        {
          "internalType": "address",
          "name": "landlord",
          "type": "address"
        },
        {
          "internalType": "uint256",
          "name": "monthlyRentUsdCents",
          "type": "uint256"
        },
        {
          "internalType": "uint8",
          "name": "dueDay",
          "type": "uint8"
        }
      ],
      "name": "registerLease",
      "outputs": [
        {
          "internalType": "bytes32",
          "name": "leaseId",
          "type": "bytes32"
        }
      ],
      "stateMutability": "nonpayable",
      "type": "function"
    }
  ],
  "bytecode": "0x608060405234801561001057600080fd5b5061076a806100206000396000f3fe608060405234801561001057600080fd5b506004361061004c5760003560e01c806307a78319146100515780631953d0981461007a5780632d54ad301461009b5780633d0d85b514610178575b600080fd5b61006461005f366004610660565b610294565b6040516100719190610682565b60405180910390f35b61008d6100883660046106c6565b610300565b604051908152602001610071565b6101316100a936600461071b565b60009081526020818152604091829020825160c08101845281546001600160a01b039081168083526001840154909116938201849052600283015494820185905260039092015460ff80821660608401819052610100830467ffffffffffffffff1660808501819052600160481b909304909116151560a09093018390529295939493909190565b604080516001600160a01b0397881681529690951660208701529385019290925260ff16606084015267ffffffffffffffff166080830152151560a082015260c001610071565b61023061018636600461071b565b6040805160c081018252600080825260208201819052918101829052606081018290526080810182905260a08101919091525060009081526020818152604091829020825160c08101845281546001600160a01b0390811682526001830154169281019290925260028101549282019290925260039091015460ff808216606084015267ffffffffffffffff6101008304166080840152600160481b90910416151560a082015290565b604051610071919081516001600160a01b039081168252602080840151909116908201526040808301519082015260608083015160ff169082015260808083015167ffffffffffffffff169082015260a09182015115159181019190915260c00190565b6001600160a01b0381166000908152600160209081526040918290208054835181840281018401909452808452606093928301828280156102f457602002820191906000526020600020905b8154815260200190600101908083116102e0575b50505050509050919050565b60006001600160a01b03851661034f5760405162461bcd60e51b815260206004820152600f60248201526e1d195b985b9d081c995c5d5a5c9959608a1b60448201526064015b60405180910390fd5b6001600160a01b0384166103995760405162461bcd60e51b81526020600482015260116024820152701b185b991b1bdc99081c995c5d5a5c9959607a1b6044820152606401610346565b600083116103d95760405162461bcd60e51b815260206004820152600d60248201526c1c995b9d081c995c5d5a5c9959609a1b6044820152606401610346565b60008260ff161180156103f05750601c8260ff1611155b61042e5760405162461bcd60e51b815260206004820152600f60248201526e696e76616c6964206475652064617960881b6044820152606401610346565b506001600160a01b03841660009081526001602090815260408083205481516bffffffffffffffffffffffff1960608a811b82168387015289901b166034820152604881018790526001600160f81b031960f887901b1660688201524260698201526089808201929092528251808203909201825260a90182528051908301208084529183905290912060030154600160481b900460ff16156105025760405162461bcd60e51b815260206004820152600c60248201526b6c656173652065786973747360a01b6044820152606401610346565b6040805160c0810182526001600160a01b0380881680835287821660208085018281528587018a815260ff808b166060890190815267ffffffffffffffff42811660808b01908152600160a08c0181815260008f8152808a528e81209d518e54908e166001600160a01b0319918216178f5598518e8401805491909e16991698909817909b55945160028c015591516003909a018054925199511515600160481b0269ff000000000000000000199a9092166101000268ffffffffffffffffff199093169a90931699909917179690961696909617909455828452848152858420805495860181558452909220909201849055915183907ffe16e4832d6186692068de18bae4d1d47898da722c826d75bbe32eec8791b6f190610634908890889091825260ff16602082015260400190565b60405180910390a4949350505050565b80356001600160a01b038116811461065b57600080fd5b919050565b60006020828403121561067257600080fd5b61067b82610644565b9392505050565b6020808252825182820181905260009190848201906040850190845b818110156106ba5783518352928401929184019160010161069e565b50909695505050505050565b600080600080608085870312156106dc57600080fd5b6106e585610644565b93506106f360208601610644565b925060408501359150606085013560ff8116811461071057600080fd5b939692955090935050565b60006020828403121561072d57600080fd5b503591905056fea264697066735822122090ae6cc84f3373dee24a6c4bb33817acc9aaa11d6faed9e52c5731e2ff62237a64736f6c63430008180033",
  "linkReferences": {},
  "deployedLinkReferences": {}
}