{
  "_format": "hh-sol-artifact-1",
  "contractName": "RentScoreReader",
  "sourceName": "contracts/RentScoreReader.sol",
  "abi": [
    {
      "inputs": [
        {
          "internalType": "address",
          "name": "paymentRecordNFTAddress",
          "type": "address"
        }
      ],
      "stateMutability": "nonpayable",
      "type": "constructor"
    },
    {
      "anonymous": false,
      "inputs": [
        {
          "indexed": true,
          "internalType": "address",
          "name": "tenant",
          "type": "address"
        },
        {
          "indexed": false,
          "internalType": "uint16",
          "name": "score",
          "type": "uint16"
        },
        {
          "indexed": false,
          "internalType": "bytes32",
          "name": "snapshotId",
          "type": "bytes32"
        }
      ],
      "name": "ScoreSnapshotStored",
      "type": "event"
    },
    {
      "inputs": [
        {
          "internalType": "address",
          "name": "tenant",
          "type": "address"
        }
      ],
      "name": "getPaymentCount",
      "outputs": [
        {
          "internalType": "uint256",
          "name": "",
          "type": "uint256"
        }
      ],
      "stateMutability": "view",
      "type": "function"
    },
    {
      "inputs": [
        {
          "internalType": "address",
          "name": "tenant",
          "type": "address"
        }
      ],
      "name": "getScore",
      "outputs": [
        {
          "internalType": "uint16",
          "name": "",
          "type": "uint16"
        }
      ],
      "stateMutability": "view",
      "type": "function"
    },
    {
      "inputs": [
        {
          "internalType": "address",
          "name": "tenant",
          "type": "address"
        },
        {
          "internalType": "uint8",
          "name": "tier",
          "type": "uint8"
        }
      ],
      "name": "isEligible",
      "outputs": [
        {
          "internalType": "bool",
          "name": "",
          "type": "bool"
        }
      ],
      "stateMutability": "view",
      "type": "function"
    },
    {
      "inputs": [],
      "name": "paymentRecordNFT",
      "outputs": [
        {
          "internalType": "contract IPaymentRecordNFT",
          "name": "",
          "type": "address"
        }
      ],
      "stateMutability": "view",
      "type": "function"
    },
    {
      "inputs": [
        {
          "internalType": "address",
          "name": "tenant",
          "type": "address"
        }
      ],
      "name": "snapshotScore",
      "outputs": [
        {
          "internalType": "bytes32",
          "name": "snapshotId",
          "type": "bytes32"
        },
        {
          "internalType": "uint16",
          "name": "score",
          "type": "uint16"
        }
      ],
      "stateMutability": "nonpayable",
      "type": "function"
    }
  ],
  "bytecode": "0x60a060405234801561001057600080fd5b50604051610ae0380380610ae083398101604081905261002f9161009a565b6001600160a01b0381166100895760405162461bcd60e51b815260206004820152601460248201527f7061796d656e74206e6674207265717569726564000000000000000000000000604482015260640160405180910390fd5b6001600160a01b03166080526100ca565b6000602082840312156100ac57600080fd5b81516001600160a01b03811681146100c357600080fd5b9392505050565b6080516109e76100f9600039600081816087015281816101570152818161021f01526102ea01526109e76000f3fe608060405234801561001057600080fd5b50600436106100575760003560e01c80634feb20ff1461005c5780636372bbff14610082578063bfcbd230146100c1578063d47875d0146100e4578063dee0ef4f1461010a575b600080fd5b61006f61006a3660046106f8565b610135565b6040519081526020015b60405180910390f35b6100a97f000000000000000000000000000000000000000000000000000000000000000081565b6040516001600160a01b039091168152602001610079565b6100d46100cf36600461072c565b6101cf565b6040519015158152602001610079565b6100f76100f23660046106f8565b6101fb565b60405161ffff9091168152602001610079565b61011d6101183660046106f8565b6105a5565b6040805192835261ffff909116602083015201610079565b6040516344e92a9360e11b81526001600160a01b0382811660048301526000917f0000000000000000000000000000000000000000000000000000000000000000909116906389d2552690602401600060405180830381865afa1580156101a0573d6000803e3d6000fd5b505050506040513d6000823e601f3d908101601f191682016040526101c89190810190610779565b5192915050565b6000806101db846101fb565b90506101e68361064f565b61ffff168161ffff1610159150505b92915050565b6040516344e92a9360e11b81526001600160a01b03828116600483015260009182917f000000000000000000000000000000000000000000000000000000000000000016906389d2552690602401600060405180830381865afa158015610266573d6000803e3d6000fd5b505050506040513d6000823e601f3d908101601f1916820160405261028e9190810190610779565b905080516000036102a25750609692915050565b60008060008067ffffffffffffffff905060008060068751116102c65760006102d4565b600687516102d4919061084d565b90506000805b885181101561044a5760008060007f00000000000000000000000000000000000000000000000000000000000000006001600160a01b031663a4a1328c8d868151811061032957610329610860565b60200260200101516040518263ffffffff1660e01b815260040161034f91815260200190565b606060405180830381865afa15801561036c573d6000803e3d6000fd5b505050506040513d601f19601f820116820180604052508101906103909190610876565b919450925090506103a1838a6108c6565b98508160ff166001036103c0576103b960018c6108c6565b9a506103d9565b8160ff166002036103d9576103d660018b6108c6565b99505b8767ffffffffffffffff168167ffffffffffffffff1610156103f9578097505b8667ffffffffffffffff168167ffffffffffffffff161115610419578096505b85841015801561042c57508160ff166001145b1561043f5761043c6001866108c6565b94505b5050506001016102da565b506096600061045a89601e6108d9565b905061012c81111561046b575061012c5b61047581836108f0565b915060068a51101580156104895750826006145b1561049c576104996032836108f0565b91505b60008a51886104ab919061092e565b9050620186a081106104c9576104c26032846108f0565b92506104eb565b61c35081106104dd576104c2601e846108f0565b6104e8600a846108f0565b92505b8667ffffffffffffffff168667ffffffffffffffff16111561055f57600062278d006105178989610942565b610521919061096a565b67ffffffffffffffff169050600c8110610547576105406032856108f0565b935061055d565b6006811061055d5761055a6019856108f0565b93505b505b61056a89600f6108d9565b6105749084610991565b9250600083121561058457600092505b6103528313156105945761035292505b50909b9a5050505050505050505050565b6000806105b1836101fb565b6040516bffffffffffffffffffffffff19606086901b1660208201526001600160f01b031960f083901b16603482015242603682015290915060560160408051601f19818403018152828252805160209182012061ffff8516845290830181905293506001600160a01b038516917f7b58212bbe78d0bded2e26998efd1b038bb41df97392a5f9a72e1202b4d10d8e910160405180910390a2915091565b60008160ff16600103610665575061012c919050565b8160ff1660020361067957506101c2919050565b8160ff1660030361068d5750610258919050565b8160ff166004036106a157506102bc919050565b60405162461bcd60e51b815260206004820152600c60248201526b34b73b30b634b2103a34b2b960a11b604482015260640160405180910390fd5b80356001600160a01b03811681146106f357600080fd5b919050565b60006020828403121561070a57600080fd5b610713826106dc565b9392505050565b60ff8116811461072957600080fd5b50565b6000806040838503121561073f57600080fd5b610748836106dc565b915060208301356107588161071a565b809150509250929050565b634e487b7160e01b600052604160045260246000fd5b6000602080838503121561078c57600080fd5b825167ffffffffffffffff808211156107a457600080fd5b818501915085601f8301126107b857600080fd5b8151818111156107ca576107ca610763565b8060051b604051601f19603f830116810181811085821117156107ef576107ef610763565b60405291825284820192508381018501918883111561080d57600080fd5b938501935b8285101561082b57845184529385019392850192610812565b98975050505050505050565b634e487b7160e01b600052601160045260246000fd5b818103818111156101f5576101f5610837565b634e487b7160e01b600052603260045260246000fd5b60008060006060848603121561088b57600080fd5b83519250602084015161089d8161071a565b604085015190925067ffffffffffffffff811681146108bb57600080fd5b809150509250925092565b808201808211156101f5576101f5610837565b80820281158282048414176101f5576101f5610837565b808201828112600083128015821682158216171561091057610910610837565b505092915050565b634e487b7160e01b600052601260045260246000fd5b60008261093d5761093d610918565b500490565b67ffffffffffffffff82811682821603908082111561096357610963610837565b5092915050565b600067ffffffffffffffff8084168061098557610985610918565b92169190910492915050565b81810360008312801583831316838312821617156109635761096361083756fea2646970667358221220e42cc7528eded026552db76a8f33bbbf6e46caa709245d3b926664d19fb1977164736f6c63430008180033",
  "linkReferences": {},
  "deployedLinkReferences": {}
}