{
  "_format": "hh-sol-artifact-1",
  "contractName": "LoanGateway",
  "sourceName": "contracts/LoanGateway.sol",
  "abi": [
    {
      "inputs": [
        {
          "internalType": "address",
          "name": "rentScoreReaderAddress",
          "type": "address"
        }
      ],
      "stateMutability": "nonpayable",
      "type": "constructor"
    },
    {
      "anonymous": false,
      "inputs": [
        {
          "indexed": true,
          "internalType": "bytes32",
          "name": "loanId",
          "type": "bytes32"
        },
        {
          "indexed": true,
          "internalType": "address",
          "name": "borrower",
          "type": "address"
        },
        {
          "indexed": false,
          "internalType": "uint256",
          "name": "principalUsdCents",
          "type": "uint256"
        },
        {
          "indexed": false,
          "internalType": "uint16",
          "name": "aprBps",
          "type": "uint16"
        }
      ],
      "name": "LoanActivated",
      "type": "event"
    },
    {
      "anonymous": false,
      "inputs": [
        {
          "indexed": true,
          "internalType": "bytes32",
          "name": "loanId",
          "type": "bytes32"
        },
        {
          "indexed": true,
          "internalType": "address",
          "name": "borrower",
          "type": "address"
        },
        {
          "indexed": false,
          "internalType": "uint256",
          "name": "amountUsdCents",
          "type": "uint256"
        },
        {
          "indexed": false,
          "internalType": "uint256",
          "name": "remainingUsdCents",
          "type": "uint256"
        }
      ],
      "name": "LoanRepaid",
      "type": "event"
    },
    {
      "anonymous": false,
      "inputs": [
        {
          "indexed": true,
          "internalType": "bytes32",
          "name": "loanId",
          "type": "bytes32"
        },
        {
          "indexed": true,
          "internalType": "address",
          "name": "borrower",
          "type": "address"
        },
        {
          "indexed": false,
          "internalType": "uint8",
          "name": "tier",
          "type": "uint8"
        },
        {
          "indexed": false,
          "internalType": "uint256",
          "name": "amountUsdCents",
          "type": "uint256"
        }
      ],
      "name": "LoanRequested",
      "type": "event"
    },
    {
      "inputs": [
        {
          "internalType": "address",
          "name": "",
          "type": "address"
        },
        {
          "internalType": "uint256",
          "name": "",
          "type": "uint256"
        }
      ],
      "name": "borrowerLoanIds",
      "outputs": [
        {
          "internalType": "bytes32",
          "name": "",
          "type": "bytes32"
        }
      ],
      "stateMutability": "view",
      "type": "function"
    },
    {
      "inputs": [
        {
          "internalType": "bytes32",
          "name": "loanId",
          "type": "bytes32"
        }
      ],
      "name": "getLoanStatus",
      "outputs": [
        {
          "internalType": "address",
          "name": "borrower",
          "type": "address"
        },
        {
          "internalType": "uint8",
          "name": "tier",
          "type": "uint8"
        },
        {
          "internalType": "uint256",
          "name": "principalUsdCents",
          "type": "uint256"
        },
        {
          "internalType": "uint256",
          "name": "outstandingUsdCents",
          "type": "uint256"
        },
        {
          "internalType": "uint16",
          "name": "aprBps",
          "type": "uint16"
        },
        {
          "internalType": "uint64",
          "name": "createdAt",
          "type": "uint64"
        },
        {
          "internalType": "enum LoanGateway.LoanStatus",
          "name": "status",
          "type": "uint8"
        }
      ],
      "stateMutability": "view",
      "type": "function"
    },
    {
      "inputs": [
        {
          "internalType": "bytes32",
          "name": "",
          "type": "bytes32"
        }
      ],
      "name": "loans",
      "outputs": [
        {
          "internalType": "bytes32",
          "name": "loanId",
          "type": "bytes32"
        },
        {
          "internalType": "address",
          "name": "borrower",
          "type": "address"
        },
        {
          "internalType": "uint8",
          "name": "tier",
          "type": "uint8"
        },
        {
          "internalType": "uint256",
          "name": "principalUsdCents",
          "type": "uint256"
        },
        {
          "internalType": "uint256",
          "name": "outstandingUsdCents",
          "type": "uint256"
        },
        {
          "internalType": "uint16",
          "name": "aprBps",
          "type": "uint16"
        },
        {
          "internalType": "uint64",
          "name": "createdAt",
          "type": "uint64"
        },
        {
          "internalType": "enum LoanGateway.LoanStatus",
          "name": "status",
          "type": "uint8"
        }
      ],
      "stateMutability": "view",
      "type": "function"
    },
    {
      "inputs": [],
      "name": "rentScoreReader",
      "outputs": [
        {
          "internalType": "contract IRentScoreReader",
          "name": "",
          "type": "address"
        }
      ],
      "stateMutability": "view",
      "type": "function"
    },
    {
      "inputs": [
        {
          "internalType": "bytes32",
          "name": "loanId",
          "type": "bytes32"
        },
        {
          "internalType": "uint256",
          "name": "amountUsdCents",
          "type": "uint256"
        }
      ],
      "name": "repayLoan",
      "outputs": [],
      "stateMutability": "nonpayable",
      "type": "function"
    },
    {
      "inputs": [
        {
          "internalType": "uint8",
          "name": "tier",
          "type": "uint8"
        },
        {
          "internalType": "uint256",
          "name": "amountUsdCents",
          "type": "uint256"
        }
      ],
      "name": "requestLoan",
      "outputs": [
        {
          "internalType": "bytes32",
          "name": "loanId",
          "type": "bytes32"
        }
      ],
      "stateMutability": "nonpayable",
      "type": "function"
    }
  ],
  "bytecode": "0x60a060405234801561001057600080fd5b50604051610c4d380380610c4d83398101604081905261002f9161009a565b6001600160a01b0381166100895760405162461bcd60e51b815260206004820152601560248201527f73636f7265207265616465722072657175697265640000000000000000000000604482015260640160405180910390fd5b6001600160a01b03166080526100ca565b6000602082840312156100ac57600080fd5b81516001600160a01b03811681146100c357600080fd5b9392505050565b608051610b626100eb6000396000818160e4015261031c0152610b626000f3fe608060405234801561001057600080fd5b50600436106100625760003560e01c80630b8eed1014610067578063159af5691461009657806327c2f17c146100b7578063a56e11bc146100cc578063a8aca760146100df578063c4a908151461011e575b600080fd5b61007a61007536600461094f565b6101a2565b60405161008d97969594939291906109a0565b60405180910390f35b6100a96100a43660046109fa565b61029e565b60405190815260200161008d565b6100ca6100c5366004610a2c565b6106d6565b005b6100a96100da366004610a4e565b61085f565b6101067f000000000000000000000000000000000000000000000000000000000000000081565b6040516001600160a01b03909116815260200161008d565b61018e61012c36600461094f565b6000602081905290815260409020805460018201546002830154600384015460049094015492936001600160a01b0383169360ff600160a01b90940484169361ffff82169167ffffffffffffffff6201000082041691600160501b9091041688565b60405161008d989796959493929190610a78565b6000818152602081815260408083208151610100810183528154815260018201546001600160a01b0381169482019490945260ff600160a01b909404841692810192909252600281015460608301526003808201546080840152600482015461ffff811660a085015267ffffffffffffffff6201000082041660c08501528594859485948594859485948594939260e0850192600160501b90049091169081111561024f5761024f610968565b600381111561026057610260610968565b905250602081015160408201516060830151608084015160a085015160c086015160e090960151949f939e50919c509a509850919650945092505050565b60008082116102e65760405162461bcd60e51b815260206004820152600f60248201526e185b5bdd5b9d081c995c5d5a5c9959608a1b60448201526064015b60405180910390fd5b60008060006102f486610890565b604051630d47875d60e41b815233600482015292955090935091506000906001600160a01b037f0000000000000000000000000000000000000000000000000000000000000000169063d47875d090602401602060405180830381865afa158015610363573d6000803e3d6000fd5b505050506040513d601f19601f820116820180604052508101906103879190610ada565b90508361ffff168161ffff1610156103d15760405162461bcd60e51b815260206004820152600d60248201526c73636f726520746f6f206c6f7760981b60448201526064016102dd565b828611156104175760405162461bcd60e51b815260206004820152601360248201527230b6b7bab73a1032bc31b2b2b239903a34b2b960691b60448201526064016102dd565b3360008181526001602090815260409182902054915160609390931b6bffffffffffffffffffffffff19169083015260f889901b6001600160f81b031916603483015260358201889052426055830152607582015260950160408051601f198184030181529181528151602092830120600081815292839052908220909650906004820154600160501b900460ff1660038111156104b7576104b7610968565b146104f25760405162461bcd60e51b815260206004820152600b60248201526a6c6f616e2065786973747360a81b60448201526064016102dd565b604051806101000160405280878152602001336001600160a01b031681526020018960ff1681526020018881526020018881526020018461ffff1681526020014267ffffffffffffffff1681526020016001600381111561055557610555610968565b90526000878152602081815260409182902083518155908301516001820180549385015160ff16600160a01b026001600160a81b03199094166001600160a01b03909216919091179290921790915560608201516002820155608082015160038083019190915560a083015160048301805460c086015167ffffffffffffffff16620100000269ffffffffffffffffffff1990911661ffff909316929092179190911780825560e08501519260ff60501b1990911690600160501b90849081111561062257610622610968565b021790555050336000818152600160208181526040808420805493840181558452928190209091018a9055815160ff8d1681529081018b905291925088917f8a4ee5fc49a9c0685033bed209fd591d07a14b7c3045640d29d4a39b0f179fe1910160405180910390a36040805188815261ffff85166020820152339188917ffb993e800d39ac56ab73bf478e5fbc9650774b23f40aff32fde8ea4c94345737910160405180910390a3505050505092915050565b600081116107185760405162461bcd60e51b815260206004820152600f60248201526e185b5bdd5b9d081c995c5d5a5c9959608a1b60448201526064016102dd565b600082815260208190526040902060016004820154600160501b900460ff16600381111561074857610748610968565b146107855760405162461bcd60e51b815260206004820152600d60248201526c6c6f616e20696e61637469766560981b60448201526064016102dd565b60018101546001600160a01b031633146107d15760405162461bcd60e51b815260206004820152600d60248201526c37b7363c903137b93937bbb2b960991b60448201526064016102dd565b806003015482106107fd576000600382015560048101805460ff60501b1916600160511b179055610817565b818160030160008282546108119190610b05565b90915550505b6003810154604080518481526020810192909252339185917fcfe13b548fc1743507f7dd02d10678df3bae7b86124955c0f831db4622146f95910160405180910390a3505050565b6001602052816000526040600020818154811061087b57600080fd5b90600052602060002001600091509150505481565b60008060008360ff166001036108b4575061012c91506207a1209050610708610948565b8360ff166002036108d357506101c29150620f424090506105dc610948565b8360ff166003036108f2575061025891506216e36090506104b0610948565b8360ff1660040361091157506102bc9150621e848090506103e8610948565b60405162461bcd60e51b815260206004820152600c60248201526b34b73b30b634b2103a34b2b960a11b60448201526064016102dd565b9193909250565b60006020828403121561096157600080fd5b5035919050565b634e487b7160e01b600052602160045260246000fd5b6004811061099c57634e487b7160e01b600052602160045260246000fd5b9052565b6001600160a01b038816815260ff87166020820152604081018690526060810185905261ffff8416608082015267ffffffffffffffff831660a082015260e081016109ee60c083018461097e565b98975050505050505050565b60008060408385031215610a0d57600080fd5b823560ff81168114610a1e57600080fd5b946020939093013593505050565b60008060408385031215610a3f57600080fd5b50508035926020909101359150565b60008060408385031215610a6157600080fd5b82356001600160a01b0381168114610a1e57600080fd5b8881526001600160a01b038816602082015260ff87166040820152606081018690526080810185905261ffff841660a082015267ffffffffffffffff831660c08201526101008101610acd60e083018461097e565b9998505050505050505050565b600060208284031215610aec57600080fd5b815161ffff81168114610afe57600080fd5b9392505050565b81810381811115610b2657634e487b7160e01b600052601160045260246000fd5b9291505056fea2646970667358221220aa7591525a4aa5ad758eba07d89101156fec3f2f52484f21ecf51fcae9b5f24c64736f6c63430008180033",
  "linkReferences": {},
  "deployedLinkReferences": {}
}