{"contracts/EscrowContract.sol":{"EscrowContract":{"abi":[{"inputs":[{"internalType":"address","name":"leaseRegistryAddress","type":"address"},{"internalType":"address","name":"paymentRecordNFTAddress","type":"address"}],"stateMutability":"nonpayable","type":"constructor"},{"anonymous":false,"inputs":[{"indexed":true,"internalType":"bytes32","name":"leaseId","type":"bytes32"},{"indexed":true,"internalType":"address","name":"landlord","type":"address"},{"indexed":false,"internalType":"uint256","name":"nativeAmount","type":"uint256"},{"indexed":false,"internalType":"bytes32","name":"paymentRecordId","type":"bytes32"}],"name":"FundsReleased","type":"event"},{"anonymous":false,"inputs":[{"indexed":true,"internalType":"bytes32","name":"leaseId","type":"bytes32"},{"indexed":true,"internalType":"address","name":"tenant","type":"address"},{"indexed":false,"internalType":"uint256","name":"amountUsdCents","type":"uint256"},{"indexed":false,"internalType":"bytes32","name":"paymentRecordId","type":"bytes32"}],"name":"RentDeposited","type":"event"},{"inputs":[{"internalType":"bytes32","name":"leaseId","type":"bytes32"},{"internalType":"uint256","name":"amountUsdCents","type":"uint256"},{"internalType":"uint8","name":"statusCode","type":"uint8"},{"internalType":"bytes32","name":"txRef","type":"bytes32"}],"name":"depositRent","outputs":[{"internalType":"bytes32","name":"paymentRecordId","type":"bytes32"},{"internalType":"uint256","name":"tokenId","type":"uint256"}],"stateMutability":"payable","type":"function"},{"inputs":[{"internalType":"bytes32","name":"leaseId","type":"bytes32"}],"name":"getLease","outputs":[{"internalType":"address","name":"tenant","type":"address"},{"internalType":"address","name":"landlord","type":"address"},{"internalType":"uint256","name":"monthlyRentUsdCents","type":"uint256"},{"internalType":"uint8","name":"dueDay","type":"uint8"},{"internalType":"uint64","name":"startTimestamp","type":"uint64"},{"internalType":"bool","name":"active","type":"bool"}],"stateMutability":"view","type":"function"},{"inputs":[],"name":"leaseRegistry","outputs":[{"internalType":"contract ILeaseRegistry","name":"","type":"address"}],"stateMutability":"view","type":"function"},{"inputs":[],"name":"paymentRecordNFT","outputs":[{"internalType":"contract IPaymentRecordMinter","name":"","type":"address"}],"stateMutability":"view","type":"function"}],"evm":{"bytecode":{"linkReferences":{},"object":"60c060405234801561001057600080fd5b5060405161096c38038061096c83398101604081905261002f91610113565b6001600160a01b03821661008a5760405162461bcd60e51b815260206004820152601760248201527f6c6561736520726567697374727920726571756972656400000000000000000060448201526064015b60405180910390fd5b6001600160a01b0381166100e05760405162461bcd60e51b815260206004820152601460248201527f7061796d656e74206e66742072657175697265640000000000000000000000006044820152606401610081565b6001600160a01b039182166080521660a052610146565b80516001600160a01b038116811461010e57600080fd5b919050565b6000806040838503121561012657600080fd5b61012f836100f7565b915061013d602084016100f7565b90509250929050565b60805160a0516107ed61017f6000396000818160c2015261059301526000818161010e01528181610163015261020f01526107ed6000f3fe60806040526004361061003f5760003560e01c80632d54ad30146100445780636372bbff146100b0578063ba622a99146100fc578063db8b612614610130575b600080fd5b34801561005057600080fd5b5061006461005f366004610664565b610158565b604080516001600160a01b0397881681529690951660208701529385019290925260ff16606084015267ffffffffffffffff166080830152151560a082015260c0015b60405180910390f35b3480156100bc57600080fd5b506100e47f000000000000000000000000000000000000000000000000000000000000000081565b6040516001600160a01b0390911681526020016100a7565b34801561010857600080fd5b506100e47f000000000000000000000000000000000000000000000000000000000000000081565b61014361013e36600461068f565b610204565b604080519283526020830191909152016100a7565b6000806000806000807f00000000000000000000000000000000000000000000000000000000000000006001600160a01b0316632d54ad30886040518263ffffffff1660e01b81526004016101af91815260200190565b60c060405180830381865afa1580156101cc573d6000803e3d6000fd5b505050506040513d601f19601f820116820180604052508101906101f091906106ea565b949c939b5091995097509550909350915050565b6000806000806000807f00000000000000000000000000000000000000000000000000000000000000006001600160a01b0316632d54ad308b6040518263ffffffff1660e01b815260040161025b91815260200190565b60c060405180830381865afa158015610278573d6000803e3d6000fd5b505050506040513d601f19601f8201168201806040525081019061029c91906106ea565b95505050935093509350806102e95760405162461bcd60e51b815260206004820152600e60248201526d696e616374697665206c6561736560901b60448201526064015b60405180910390fd5b336001600160a01b0385161461032f5760405162461bcd60e51b815260206004820152600b60248201526a1bdb9b1e481d195b985b9d60aa1b60448201526064016102e0565b600089116103715760405162461bcd60e51b815260206004820152600f60248201526e185b5bdd5b9d081c995c5d5a5c9959608a1b60448201526064016102e0565b8760ff166001148061038657508760ff166002145b6103c35760405162461bcd60e51b815260206004820152600e60248201526d696e76616c69642073746174757360901b60448201526064016102e0565b6103ce826002610773565b8911156104135760405162461bcd60e51b8152602060048201526013602482015272616d6f756e74206f7574206f662072616e676560681b60448201526064016102e0565b60408051602081018c90526bffffffffffffffffffffffff193360601b1691810191909152605481018a90526001600160f81b031960f88a901b1660748201526075810188905242609582015260b50160408051601f1981840301815282825280516020918201208c8452908301819052975033918c917fe69f9287ca54cac6747055ba7cf6ee4002728706632dd94d40246d4130f28898910160405180910390a33415610559576000836001600160a01b03163460405160006040518083038185875af1925050503d8060008114610508576040519150601f19603f3d011682016040523d82523d6000602084013e61050d565b606091505b50509050806105575760405162461bcd60e51b81526020600482015260166024820152751b985d1a5d99481d1c985b9cd9995c8819985a5b195960521b60448201526064016102e0565b505b6040516370bc529d60e11b815233600482015260248101879052604481018b9052606481018a905260ff8916608482015260a481018890527f00000000000000000000000000000000000000000000000000000000000000006001600160a01b03169063e178a53a9060c4016020604051808303816000875af11580156105e4573d6000803e3d6000fd5b505050506040513d601f19601f82011682018060405250810190610608919061079e565b9450826001600160a01b03168a7ffb05a530fff613a49dc9c650053b0cf9c35a08279d406a3156cf42997d0c6c27348960405161064f929190918252602082015260400190565b60405180910390a35050505094509492505050565b60006020828403121561067657600080fd5b5035919050565b60ff8116811461068c57600080fd5b50565b600080600080608085870312156106a557600080fd5b843593506020850135925060408501356106be8161067d565b9396929550929360600135925050565b80516001600160a01b03811681146106e557600080fd5b919050565b60008060008060008060c0878903121561070357600080fd5b61070c876106ce565b955061071a602088016106ce565b94506040870151935060608701516107318161067d565b608088015190935067ffffffffffffffff8116811461074f57600080fd5b60a0880151909250801515811461076557600080fd5b809150509295509295509295565b808202811582820484141761079857634e487b7160e01b600052601160045260246000fd5b92915050565b6000602082840312156107b057600080fd5b505191905056fea26469706673582212202bb43d6f88c0d101d5133a7c0611c652188f2460febad33fed56622beb52209564736f6c63430008180033","opcodes":"PUSH1 0xC0 PUSH1 0x40 MSTORE CALLVALUE DUP1 ISZERO PUSH2 0x10 JUMPI PUSH1 0x0 DUP1 REVERT JUMPDEST POP PUSH1 0x40 MLOAD PUSH2 0x96C CODESIZE SUB DUP1 PUSH2 0x96C DUP4 CODECOPY DUP2 ADD PUSH1 0x40 DUP2 SWAP1 MSTORE PUSH2 0x2F SWAP2 PUSH2 0x113 JUMP JUMPDEST PUSH1 0x1 PUSH1 0x1 PUSH1 0xA0 SHL SUB DUP3 AND PUSH2 0x8A JUMPI PUSH1 0x40 MLOAD PUSH3 0x461BCD PUSH1 0xE5 SHL DUP2 MSTORE PUSH1 0x20 PUSH1 0x4 DUP3 ADD MSTORE PUSH1 0x17 PUSH1 0x24 DUP3 ADD MSTORE PUSH32 0x6C65617365207265676973747279207265717569726564000000000000000000 PUSH1 0x44 DUP3 ADD MSTORE PUSH1 0x64 ADD JUMPDEST PUSH1 0x40 MLOAD DUP1 SWAP2 SUB SWAP1 REVERT JUMPDEST PUSH1 0x1 PUSH1 0x1 PUSH1 0xA0 SHL SUB DUP2 AND PUSH2 0xE0 JUMPI PUSH1 0x40 MLOAD PUSH3 0x461BCD PUSH1 0xE5 SHL DUP2 MSTORE PUSH1 0x20 PUSH1 0x4 DUP3 ADD MSTORE PUSH1 0x14 PUSH1 0x24 DUP3 ADD MSTORE PUSH32 0x7061796D656E74206E6674207265717569726564000000000000000000000000 PUSH1 0x44 DUP3 ADD MSTORE PUSH1 0x64 ADD PUSH2 0x81 JUMP JUMPDEST PUSH1 0x1 PUSH1 0x1 PUSH1 0xA0 SHL SUB SWAP2 DUP3 AND PUSH1 0x80 MSTORE AND PUSH1 0xA0 MSTORE PUSH2 0x146 JUMP JUMPDEST DUP1 MLOAD PUSH1 0x1 PUSH1 0x1 PUSH1 0xA0 SHL SUB DUP2 AND DUP2 EQ PUSH2 0x10E JUMPI PUSH1 0x0 DUP1 REVERT JUMPDEST SWAP2 SWAP1 POP JUMP JUMPDEST PUSH1 0x0 DUP1 PUSH1 0x40 DUP4 DUP6 SUB SLT ISZERO PUSH2 0x126 JUMPI PUSH1 0x0 DUP1 REVERT JUMPDEST PUSH2 0x12F DUP4 PUSH2 0xF7 JUMP JUMPDEST SWAP2 POP PUSH2 0x13D PUSH1 0x20 DUP5 ADD PUSH2 0xF7 JUMP JUMPDEST SWAP1 POP SWAP3 POP SWAP3 SWAP1 POP JUMP JUMPDEST PUSH1 0x80 MLOAD PUSH1 0xA0 MLOAD PUSH2 0x7ED PUSH2 0x17F PUSH1 0x0 CODECOPY PUSH1 0x0 DUP2 DUP2 PUSH1 0xC2 ADD MSTORE PUSH2 0x593 ADD MSTORE PUSH1 0x0 DUP2 DUP2 PUSH2 0x10E ADD MSTORE DUP2 DUP2 PUSH2 0x163 ADD MSTORE PUSH2 0x20F ADD MSTORE PUSH2 0x7ED PUSH1 0x0 RETURN INVALID PUSH1 0x80 PUSH1 0x40 MSTORE PUSH1 0x4 CALLDATASIZE LT PUSH2 0x3F JUMPI PUSH1 0x0 CALLDATALOAD PUSH1 0xE0 SHR DUP1 PUSH4 0x2D54AD30 EQ PUSH2 0x44 JUMPI DUP1 PUSH4 0x6372BBFF EQ PUSH2 0xB0 JUMPI DUP1 PUSH4 0xBA622A99 EQ PUSH2 0xFC JUMPI DUP1 PUSH4 0xDB8B6126 EQ PUSH2 0x130 JUMPI JUMPDEST PUSH1 0x0 DUP1 REVERT JUMPDEST CALLVALUE DUP1 ISZERO PUSH2 0x50 JUMPI PUSH1 0x0 DUP1 REVERT JUMPDEST POP PUSH2 0x64 PUSH2 0x5F CALLDATASIZE PUSH1 0x4 PUSH2 0x664 JUMP JUMPDEST PUSH2 0x158 JUMP JUMPDEST PUSH1 0x40 DUP1 MLOAD PUSH1 0x1 PUSH1 0x1 PUSH1 0xA0 SHL SUB SWAP8 DUP9 AND DUP2 MSTORE SWAP7 SWAP1 SWAP6 AND PUSH1 0x20 DUP8 ADD MSTORE SWAP4 DUP6 ADD SWAP3 SWAP1 SWAP3 MSTORE PUSH1 0xFF AND PUSH1 0x60 DUP5 ADD MSTORE PUSH8 0xFFFFFFFFFFFFFFFF AND PUSH1 0x80 DUP4 ADD MSTORE ISZERO ISZERO PUSH1 0xA0 DUP3 ADD MSTORE PUSH1 0xC0 ADD JUMPDEST PUSH1 0x40 MLOAD DUP1 SWAP2 SUB SWAP1 RETURN JUMPDEST CALLVALUE DUP1 ISZERO PUSH2 0xBC JUMPI PUSH1 0x0 DUP1 REVERT JUMPDEST POP PUSH2 0xE4 PUSH32 0x0 DUP2 JUMP JUMPDEST PUSH1 0x40 MLOAD PUSH1 0x1 PUSH1 0x1 PUSH1 0xA0 SHL SUB SWAP1 SWAP2 AND DUP2 MSTORE PUSH1 0x20 ADD PUSH2 0xA7 JUMP JUMPDEST CALLVALUE DUP1 ISZERO PUSH2 0x108 JUMPI PUSH1 0x0 DUP1 REVERT JUMPDEST POP PUSH2 0xE4 PUSH32 0x0 DUP2 JUMP JUMPDEST PUSH2 0x143 PUSH2 0x13E CALLDATASIZE PUSH1 0x4 PUSH2 0x68F JUMP JUMPDEST PUSH2 0x204 JUMP JUMPDEST PUSH1 0x40 DUP1 MLOAD SWAP3 DUP4 MSTORE PUSH1 0x20 DUP4 ADD SWAP2 SWAP1 SWAP2 MSTORE ADD PUSH2 0xA7 JUMP JUMPDEST PUSH1 0x0 DUP1 PUSH1 0x0 DUP1 PUSH1 0x0 DUP1 PUSH32 0x0 PUSH1 0x1 PUSH1 0x1 PUSH1 0xA0 SHL SUB AND PUSH4 0x2D54AD30 DUP9 PUSH1 0x40 MLOAD DUP3 PUSH4 0xFFFFFFFF AND PUSH1 0xE0 SHL DUP2 MSTORE PUSH1 0x4 ADD PUSH2 0x1AF SWAP2 DUP2 MSTORE PUSH1 0x20 ADD SWAP1 JUMP JUMPDEST PUSH1 0xC0 PUSH1 0x40 MLOAD DUP1 DUP4 SUB DUP2 DUP7 GAS STATICCALL ISZERO DUP1 ISZERO PUSH2 0x1CC JUMPI RETURNDATASIZE PUSH1 0x0 DUP1 RETURNDATACOPY RETURNDATASIZE PUSH1 0x0 REVERT JUMPDEST POP POP POP POP PUSH1 0x40 MLOAD RETURNDATASIZE PUSH1 0x1F NOT PUSH1 0x1F DUP3 ADD AND DUP3 ADD DUP1 PUSH1 0x40 MSTORE POP DUP2 ADD SWAP1 PUSH2 0x1F0 SWAP2 SWAP1 PUSH2 0x6EA JUMP JUMPDEST SWAP5 SWAP13 SWAP4 SWAP12 POP SWAP2 SWAP10 POP SWAP8 POP SWAP6 POP SWAP1 SWAP4 POP SWAP2 POP POP JUMP JUMPDEST PUSH1 0x0 DUP1 PUSH1 0x0 DUP1 PUSH1 0x0 DUP1 PUSH32 0x0 PUSH1 0x1 PUSH1 0x1 PUSH1 0xA0 SHL SUB AND PUSH4 0x2D54AD30 DUP12 PUSH1 0x40 MLOAD DUP3 PUSH4 0xFFFFFFFF AND PUSH1 0xE0 SHL DUP2 MSTORE PUSH1 0x4 ADD PUSH2 0x25B SWAP2 DUP2 MSTORE PUSH1 0x20 ADD SWAP1 JUMP JUMPDEST PUSH1 0xC0 PUSH1 0x40 MLOAD DUP1 DUP4 SUB DUP2 DUP7 GAS STATICCALL ISZERO DUP1 ISZERO PUSH2 0x278 JUMPI RETURNDATASIZE PUSH1 0x0 DUP1 RETURNDATACOPY RETURNDATASIZE PUSH1 0x0 REVERT JUMPDEST POP POP POP POP PUSH1 0x40 MLOAD RETURNDATASIZE PUSH1 0x1F NOT PUSH1 0x1F DUP3 ADD AND DUP3 ADD DUP1 PUSH1 0x40 MSTORE POP DUP2 ADD SWAP1 PUSH2 0x29C SWAP2 SWAP1 PUSH2 0x6EA JUMP JUMPDEST SWAP6 POP POP POP SWAP4 POP SWAP4 POP SWAP4 POP DUP1 PUSH2 0x2E9 JUMPI PUSH1 0x40 MLOAD PUSH3 0x461BCD PUSH1 0xE5 SHL DUP2 MSTORE PUSH1 0x20 PUSH1 0x4 DUP3 ADD MSTORE PUSH1 0xE PUSH1 0x24 DUP3 ADD MSTORE PUSH14 0x696E616374697665206C65617365 PUSH1 0x90 SHL PUSH1 0x44 DUP3 ADD MSTORE PUSH1 0x64 ADD JUMPDEST PUSH1 0x40 MLOAD DUP1 SWAP2 SUB SWAP1 REVERT JUMPDEST CALLER PUSH1 0x1 PUSH1 0x1 PUSH1 0xA0 SHL SUB DUP6 AND EQ PUSH2 0x32F JUMPI PUSH1 0x40 MLOAD PUSH3 0x461BCD PUSH1 0xE5 SHL DUP2 MSTORE PUSH1 0x20 PUSH1 0x4 DUP3 ADD MSTORE PUSH1 0xB PUSH1 0x24 DUP3 ADD MSTORE PUSH11 0x1BDB9B1E481D195B985B9D PUSH1 0xAA SHL PUSH1 0x44 DUP3 ADD MSTORE PUSH1 0x64 ADD PUSH2 0x2E0 JUMP JUMPDEST PUSH1 0x0 DUP10 GT PUSH2 0x371 JUMPI PUSH1 0x40 MLOAD PUSH3 0x461BCD PUSH1 0xE5 SHL DUP2 MSTORE PUSH1 0x20 PUSH1 0x4 DUP3 ADD MSTORE PUSH1 0xF PUSH1 0x24 DUP3 ADD MSTORE PUSH15 0x185B5BDD5B9D081C995C5D5A5C9959 PUSH1 0x8A SHL PUSH1 0x44 DUP3 ADD MSTORE PUSH1 0x64 ADD PUSH2 0x2E0 JUMP JUMPDEST DUP8 PUSH1 0xFF AND PUSH1 0x1 EQ DUP1 PUSH2 0x386 JUMPI POP DUP8 PUSH1 0xFF AND PUSH1 0x2 EQ JUMPDEST PUSH2 0x3C3 JUMPI PUSH1 0x40 MLOAD PUSH3 0x461BCD PUSH1 0xE5 SHL DUP2 MSTORE PUSH1 0x20 PUSH1 0x4 DUP3 ADD MSTORE PUSH1 0xE PUSH1 0x24 DUP3 ADD MSTORE PUSH14 0x696E76616C696420737461747573 PUSH1 0x90 SHL PUSH1 0x44 DUP3 ADD MSTORE PUSH1 0x64 ADD PUSH2 0x2E0 JUMP JUMPDEST PUSH2 0x3CE DUP3 PUSH1 0x2 PUSH2 0x773 JUMP JUMPDEST DUP10 GT ISZERO PUSH2 0x413 JUMPI PUSH1 0x40 MLOAD PUSH3 0x461BCD PUSH1 0xE5 SHL DUP2 MSTORE PUSH1 0x20 PUSH1 0x4 DUP3 ADD MSTORE PUSH1 0x13 PUSH1 0x24 DUP3 ADD MSTORE PUSH19 0x616D6F756E74206F7574206F662072616E6765 PUSH1 0x68 SHL PUSH1 0x44 DUP3 ADD MSTORE PUSH1 0x64 ADD PUSH2 0x2E0 JUMP JUMPDEST PUSH1 0x40 DUP1 MLOAD PUSH1 0x20 DUP2 ADD DUP13 SWAP1 MSTORE PUSH12 0xFFFFFFFFFFFFFFFFFFFFFFFF NOT CALLER PUSH1 0x60 SHL AND SWAP2 DUP2 ADD SWAP2 SWAP1 SWAP2 MSTORE PUSH1 0x54 DUP2 ADD DUP11 SWAP1 MSTORE PUSH1 0x1 PUSH1 0x1 PUSH1 0xF8 SHL SUB NOT PUSH1 0xF8 DUP11 SWAP1 SHL AND PUSH1 0x74 DUP3 ADD MSTORE PUSH1 0x75 DUP2 ADD DUP9 SWAP1 MSTORE TIMESTAMP PUSH1 0x95 DUP3 ADD MSTORE PUSH1 0xB5 ADD PUSH1 0x40 DUP1 MLOAD PUSH1 0x1F NOT DUP2 DUP5 SUB ADD DUP2 MSTORE DUP3 DUP3 MSTORE DUP1 MLOAD PUSH1 0x20 SWAP2 DUP3 ADD KECCAK256 DUP13 DUP5 MSTORE SWAP1 DUP4 ADD DUP2 SWAP1 MSTORE SWAP8 POP CALLER SWAP2 DUP13 SWAP2 PUSH32 0xE69F9287CA54CAC6747055BA7CF6EE4002728706632DD94D40246D4130F28898 SWAP2 ADD PUSH1 0x40 MLOAD DUP1 SWAP2 SUB SWAP1 LOG3 CALLVALUE ISZERO PUSH2 0x559 JUMPI PUSH1 0x0 DUP4 PUSH1 0x1 PUSH1 0x1 PUSH1 0xA0 SHL SUB AND CALLVALUE PUSH1 0x40 MLOAD PUSH1 0x0 PUSH1 0x40 MLOAD DUP1 DUP4 SUB DUP2 DUP6 DUP8 GAS CALL SWAP3 POP POP POP RETURNDATASIZE DUP1 PUSH1 0x0 DUP2 EQ PUSH2 0x508 JUMPI PUSH1 0x40 MLOAD SWAP2 POP PUSH1 0x1F NOT PUSH1 0x3F RETURNDATASIZE ADD AND DUP3 ADD PUSH1 0x40 MSTORE RETURNDATASIZE DUP3 MSTORE RETURNDATASIZE PUSH1 0x0 PUSH1 0x20 DUP5 ADD RETURNDATACOPY PUSH2 0x50D JUMP JUMPDEST PUSH1 0x60 SWAP2 POP JUMPDEST POP POP SWAP1 POP DUP1 PUSH2 0x557 JUMPI PUSH1 0x40 MLOAD PUSH3 0x461BCD PUSH1 0xE5 SHL DUP2 MSTORE PUSH1 0x20 PUSH1 0x4 DUP3 ADD MSTORE PUSH1 0x16 PUSH1 0x24 DUP3 ADD MSTORE PUSH22 0x1B985D1A5D99481D1C985B9CD9995C8819985A5B1959 PUSH1 0x52 SHL PUSH1 0x44 DUP3 ADD MSTORE PUSH1 0x64 ADD PUSH2 0x2E0 JUMP JUMPDEST POP JUMPDEST PUSH1 0x40 MLOAD PUSH4 0x70BC529D PUSH1 0xE1 SHL DUP2 MSTORE CALLER PUSH1 0x4 DUP3 ADD MSTORE PUSH1 0x24 DUP2 ADD DUP8 SWAP1 MSTORE PUSH1 0x44 DUP2 ADD DUP12 SWAP1 MSTORE PUSH1 0x64 DUP2 ADD DUP11 SWAP1 MSTORE PUSH1 0xFF DUP10 AND PUSH1 0x84 DUP3 ADD MSTORE PUSH1 0xA4 DUP2 ADD DUP9 SWAP1 MSTORE PUSH32 0x0 PUSH1 0x1 PUSH1 0x1 PUSH1 0xA0 SHL SUB AND SWAP1 PUSH4 0xE178A53A SWAP1 PUSH1 0xC4 ADD PUSH1 0x20 PUSH1 0x40 MLOAD DUP1 DUP4 SUB DUP2 PUSH1 0x0 DUP8 GAS CALL ISZERO DUP1 ISZERO PUSH2 0x5E4 JUMPI RETURNDATASIZE PUSH1 0x0 DUP1 RETURNDATACOPY RETURNDATASIZE PUSH1 0x0 REVERT JUMPDEST POP POP POP POP PUSH1 0x40 MLOAD RETURNDATASIZE PUSH1 0x1F NOT PUSH1 0x1F DUP3 ADD AND DUP3 ADD DUP1 PUSH1 0x40 MSTORE POP DUP2 ADD SWAP1 PUSH2 0x608 SWAP2 SWAP1 PUSH2 0x79E JUMP JUMPDEST SWAP5 POP DUP3 PUSH1 0x1 PUSH1 0x1 PUSH1 0xA0 SHL SUB AND DUP11 PUSH32 0xFB05A530FFF613A49DC9C650053B0CF9C35A08279D406A3156CF42997D0C6C27 CALLVALUE DUP10 PUSH1 0x40 MLOAD PUSH2 0x64F SWAP3 SWAP2 SWAP1 SWAP2 DUP3 MSTORE PUSH1 0x20 DUP3 ADD MSTORE PUSH1 0x40 ADD SWAP1 JUMP JUMPDEST PUSH1 0x40 MLOAD DUP1 SWAP2 SUB SWAP1 LOG3 POP POP POP POP SWAP5 POP SWAP5 SWAP3 POP POP POP JUMP JUMPDEST PUSH1 0x0 PUSH1 0x20 DUP3 DUP5 SUB SLT ISZERO PUSH2 0x676 JUMPI PUSH1 0x0 DUP1 REVERT JUMPDEST POP CALLDATALOAD SWAP2 SWAP1 POP JUMP JUMPDEST PUSH1 0xFF DUP2 AND DUP2 EQ PUSH2 0x68C JUMPI PUSH1 0x0 DUP1 REVERT JUMPDEST POP JUMP JUMPDEST PUSH1 0x0 DUP1 PUSH1 0x0 DUP1 PUSH1 0x80 DUP6 DUP8 SUB SLT ISZERO PUSH2 0x6A5 JUMPI PUSH1 0x0 DUP1 REVERT JUMPDEST DUP5 CALLDATALOAD SWAP4 POP PUSH1 0x20 DUP6 ADD CALLDATALOAD SWAP3 POP PUSH1 0x40 DUP6 ADD CALLDATALOAD PUSH2 0x6BE DUP2 PUSH2 0x67D JUMP JUMPDEST SWAP4 SWAP7 SWAP3 SWAP6 POP SWAP3 SWAP4 PUSH1 0x60 ADD CALLDATALOAD SWAP3 POP POP JUMP JUMPDEST DUP1 MLOAD PUSH1 0x1 PUSH1 0x1 PUSH1 0xA0 SHL SUB DUP2 AND DUP2 EQ PUSH2 0x6E5 JUMPI PUSH1 0x0 DUP1 REVERT JUMPDEST SWAP2 SWAP1 POP JUMP JUMPDEST PUSH1 0x0 DUP1 PUSH1 0x0 DUP1 PUSH1 0x0 DUP1 PUSH1 0xC0 DUP8 DUP10 SUB SLT ISZERO PUSH2 0x703 JUMPI PUSH1 0x0 DUP1 REVERT JUMPDEST PUSH2 0x70C DUP8 PUSH2 0x6CE JUMP JUMPDEST SWAP6 POP PUSH2 0x71A PUSH1 0x20 DUP9 ADD PUSH2 0x6CE JUMP JUMPDEST SWAP5 POP PUSH1 0x40 DUP8 ADD MLOAD SWAP4 POP PUSH1 0x60 DUP8 ADD MLOAD PUSH2 0x731 DUP2 PUSH2 0x67D JUMP JUMPDEST PUSH1 0x80 DUP9 ADD MLOAD SWAP1 SWAP4 POP PUSH8 0xFFFFFFFFFFFFFFFF DUP2 AND DUP2 EQ PUSH2 0x74F JUMPI PUSH1 0x0 DUP1 REVERT JUMPDEST PUSH1 0xA0 DUP9 ADD MLOAD SWAP1 SWAP3 POP DUP1 ISZERO ISZERO DUP2 EQ PUSH2 0x765 JUMPI PUSH1 0x0 DUP1 REVERT JUMPDEST DUP1 SWAP2 POP POP SWAP3 SWAP6 POP SWAP3 SWAP6 POP SWAP3 SWAP6 JUMP JUMPDEST DUP1 DUP3 MUL DUP2 ISZERO DUP3 DUP3 DIV DUP5 EQ OR PUSH2 0x798 JUMPI PUSH4 0x4E487B71 PUSH1 0xE0 SHL PUSH1 0x0 MSTORE PUSH1 0x11 PUSH1 0x4 MSTORE PUSH1 0x24 PUSH1 0x0 REVERT JUMPDEST SWAP3 SWAP2 POP POP JUMP JUMPDEST PUSH1 0x0 PUSH1 0x20 DUP3 DUP5 SUB SLT ISZERO PUSH2 0x7B0 JUMPI PUSH1 0x0 DUP1 REVERT JUMPDEST POP MLOAD SWAP2 SWAP1 POP JUMP INVALID LOG2 PUSH5 0x6970667358 0x22 SLT KECCAK256 0x2B 0xB4 RETURNDATASIZE PUSH16 0x88C0D101D5133A7C0611C652188F2460 INVALID 0xBA 0xD3 EXTCODEHASH 0xED JUMP PUSH3 0x2BEB52 KECCAK256 SWAP6 PUSH5 0x736F6C6343 STOP ADDMOD XOR STOP CALLER "},"methodIdentifiers":{"depositRent(bytes32,uint256,uint8,bytes32)":"db8b6126","getLease(bytes32)":"2d54ad30","leaseRegistry()":"ba622a99","paymentRecordNFT()":"6372bbff"}}}}}