{"contracts/LoanGateway.sol":{"LoanGateway":{"abi":[{"inputs":[{"internalType":"address","name":"rentScoreReaderAddress","type":"address"}],"stateMutability":"nonpayable","type":"constructor"},{"anonymous":false,"inputs":[{"indexed":true,"internalType":"bytes32","name":"loanId","type":"bytes32"},{"indexed":true,"internalType":"address","name":"borrower","type":"address"},{"indexed":false,"internalType":"uint256","name":"principalUsdCents","type":"uint256"},{"indexed":false,"internalType":"uint16","name":"aprBps","type":"uint16"}],"name":"LoanActivated","type":"event"},{"anonymous":false,"inputs":[{"indexed":true,"internalType":"bytes32","name":"loanId","type":"bytes32"},{"indexed":true,"internalType":"address","name":"borrower","type":"address"},{"indexed":false,"internalType":"uint256","name":"amountUsdCents","type":"uint256"},{"indexed":false,"internalType":"uint256","name":"remainingUsdCents","type":"uint256"}],"name":"LoanRepaid","type":"event"},{"anonymous":false,"inputs":[{"indexed":true,"internalType":"bytes32","name":"loanId","type":"bytes32"},{"indexed":true,"internalType":"address","name":"borrower","type":"address"},{"indexed":false,"internalType":"uint8","name":"tier","type":"uint8"},{"indexed":false,"internalType":"uint256","name":"amountUsdCents","type":"uint256"}],"name":"LoanRequested","type":"event"},{"inputs":[{"internalType":"address","name":"","type":"address"},{"internalType":"uint256","name":"","type":"uint256"}],"name":"borrowerLoanIds","outputs":[{"internalType":"bytes32","name":"","type":"bytes32"}],"stateMutability":"view","type":"function"},{"inputs":[{"internalType":"bytes32","name":"loanId","type":"bytes32"}],"name":"getLoanStatus","outputs":[{"internalType":"address","name":"borrower","type":"address"},{"internalType":"uint8","name":"tier","type":"uint8"},{"internalType":"uint256","name":"principalUsdCents","type":"uint256"},{"internalType":"uint256","name":"outstandingUsdCents","type":"uint256"},{"internalType":"uint16","name":"aprBps","type":"uint16"},{"internalType":"uint64","name":"createdAt","type":"uint64"},{"internalType":"enum LoanGateway.LoanStatus","name":"status","type":"uint8"}],"stateMutability":"view","type":"function"},{"inputs":[{"internalType":"bytes32","name":"","type":"bytes32"}],"name":"loans","outputs":[{"internalType":"bytes32","name":"loanId","type":"bytes32"},{"internalType":"address","name":"borrower","type":"address"},{"internalType":"uint8","name":"tier","type":"uint8"},{"internalType":"uint256","name":"principalUsdCents","type":"uint256"},{"internalType":"uint256","name":"outstandingUsdCents","type":"uint256"},{"internalType":"uint16","name":"aprBps","type":"uint16"},{"internalType":"uint64","name":"createdAt","type":"uint64"},{"internalType":"enum LoanGateway.LoanStatus","name":"status","type":"uint8"}],"stateMutability":"view","type":"function"},{"inputs":[],"name":"rentScoreReader","outputs":[{"internalType":"contract IRentScoreReader","name":"","type":"address"}],"stateMutability":"view","type":"function"},{"inputs":[{"internalType":"bytes32","name":"loanId","type":"bytes32"},{"internalType":"uint256","name":"amountUsdCents","type":"uint256"}],"name":"repayLoan","outputs":[],"stateMutability":"nonpayable","type":"function"},{"inputs":[{"internalType":"uint8","name":"tier","type":"uint8"},{"internalType":"uint256","name":"amountUsdCents","type":"uint256"}],"name":"requestLoan","outputs":[{"internalType":"bytes32","name":"loanId","type":"bytes32"}],"stateMutability":"nonpayable","type":"function"}],"evm":{"bytecode":{"linkReferences":{},"object":"60a060405234801561001057600080fd5b50604051610c4d380380610c4d83398101604081905261002f9161009a565b6001600160a01b0381166100895760405162461bcd60e51b815260206004820152601560248201527f73636f7265207265616465722072657175697265640000000000000000000000604482015260640160405180910390fd5b6001600160a01b03166080526100ca565b6000602082840312156100ac57600080fd5b81516001600160a01b03811681146100c357600080fd5b9392505050565b608051610b626100eb6000396000818160e4015261031c0152610b626000f3fe608060405234801561001057600080fd5b50600436106100625760003560e01c80630b8eed1014610067578063159af5691461009657806327c2f17c146100b7578063a56e11bc146100cc578063a8aca760146100df578063c4a908151461011e575b600080fd5b61007a61007536600461094f565b6101a2565b60405161008d97969594939291906109a0565b60405180910390f35b6100a96100a43660046109fa565b61029e565b60405190815260200161008d565b6100ca6100c5366004610a2c565b6106d6565b005b6100a96100da366004610a4e565b61085f565b6101067f000000000000000000000000000000000000000000000000000000000000000081565b6040516001600160a01b03909116815260200161008d565b61018e61012c36600461094f565b6000602081905290815260409020805460018201546002830154600384015460049094015492936001600160a01b0383169360ff600160a01b90940484169361ffff82169167ffffffffffffffff6201000082041691600160501b9091041688565b60405161008d989796959493929190610a78565b6000818152602081815260408083208151610100810183528154815260018201546001600160a01b0381169482019490945260ff600160a01b909404841692810192909252600281015460608301526003808201546080840152600482015461ffff811660a085015267ffffffffffffffff6201000082041660c08501528594859485948594859485948594939260e0850192600160501b90049091169081111561024f5761024f610968565b600381111561026057610260610968565b905250602081015160408201516060830151608084015160a085015160c086015160e090960151949f939e50919c509a509850919650945092505050565b60008082116102e65760405162461bcd60e51b815260206004820152600f60248201526e185b5bdd5b9d081c995c5d5a5c9959608a1b60448201526064015b60405180910390fd5b60008060006102f486610890565b604051630d47875d60e41b815233600482015292955090935091506000906001600160a01b037f0000000000000000000000000000000000000000000000000000000000000000169063d47875d090602401602060405180830381865afa158015610363573d6000803e3d6000fd5b505050506040513d601f19601f820116820180604052508101906103879190610ada565b90508361ffff168161ffff1610156103d15760405162461bcd60e51b815260206004820152600d60248201526c73636f726520746f6f206c6f7760981b60448201526064016102dd565b828611156104175760405162461bcd60e51b815260206004820152601360248201527230b6b7bab73a1032bc31b2b2b239903a34b2b960691b60448201526064016102dd565b3360008181526001602090815260409182902054915160609390931b6bffffffffffffffffffffffff19169083015260f889901b6001600160f81b031916603483015260358201889052426055830152607582015260950160408051601f198184030181529181528151602092830120600081815292839052908220909650906004820154600160501b900460ff1660038111156104b7576104b7610968565b146104f25760405162461bcd60e51b815260206004820152600b60248201526a6c6f616e2065786973747360a81b60448201526064016102dd565b604051806101000160405280878152602001336001600160a01b031681526020018960ff1681526020018881526020018881526020018461ffff1681526020014267ffffffffffffffff1681526020016001600381111561055557610555610968565b90526000878152602081815260409182902083518155908301516001820180549385015160ff16600160a01b026001600160a81b03199094166001600160a01b03909216919091179290921790915560608201516002820155608082015160038083019190915560a083015160048301805460c086015167ffffffffffffffff16620100000269ffffffffffffffffffff1990911661ffff909316929092179190911780825560e08501519260ff60501b1990911690600160501b90849081111561062257610622610968565b021790555050336000818152600160208181526040808420805493840181558452928190209091018a9055815160ff8d1681529081018b905291925088917f8a4ee5fc49a9c0685033bed209fd591d07a14b7c3045640d29d4a39b0f179fe1910160405180910390a36040805188815261ffff85166020820152339188917ffb993e800d39ac56ab73bf478e5fbc9650774b23f40aff32fde8ea4c94345737910160405180910390a3505050505092915050565b600081116107185760405162461bcd60e51b815260206004820152600f60248201526e185b5bdd5b9d081c995c5d5a5c9959608a1b60448201526064016102dd565b600082815260208190526040902060016004820154600160501b900460ff16600381111561074857610748610968565b146107855760405162461bcd60e51b815260206004820152600d60248201526c6c6f616e20696e61637469766560981b60448201526064016102dd565b60018101546001600160a01b031633146107d15760405162461bcd60e51b815260206004820152600d60248201526c37b7363c903137b93937bbb2b960991b60448201526064016102dd565b806003015482106107fd576000600382015560048101805460ff60501b1916600160511b179055610817565b818160030160008282546108119190610b05565b90915550505b6003810154604080518481526020810192909252339185917fcfe13b548fc1743507f7dd02d10678df3bae7b86124955c0f831db4622146f95910160405180910390a3505050565b6001602052816000526040600020818154811061087b57600080fd5b90600052602060002001600091509150505481565b60008060008360ff166001036108b4575061012c9150620f42409050610708610948565b8360ff166002036108d357506101c29150622dc6c090506105dc610948565b8360ff166003036108f257506102589150627270e090506104b0610948565b8360ff1660040361091157506102bc915062e4e1c090506103e8610948565b60405162461bcd60e51b815260206004820152600c60248201526b34b73b30b634b2103a34b2b960a11b60448201526064016102dd565b9193909250565b60006020828403121561096157600080fd5b5035919050565b634e487b7160e01b600052602160045260246000fd5b6004811061099c57634e487b7160e01b600052602160045260246000fd5b9052565b6001600160a01b038816815260ff87166020820152604081018690526060810185905261ffff8416608082015267ffffffffffffffff831660a082015260e081016109ee60c083018461097e565b98975050505050505050565b60008060408385031215610a0d57600080fd5b823560ff81168114610a1e57600080fd5b946020939093013593505050565b60008060408385031215610a3f57600080fd5b50508035926020909101359150565b60008060408385031215610a6157600080fd5b82356001600160a01b0381168114610a1e57600080fd5b8881526001600160a01b038816602082015260ff87166040820152606081018690526080810185905261ffff841660a082015267ffffffffffffffff831660c08201526101008101610acd60e083018461097e565b9998505050505050505050565b600060208284031215610aec57600080fd5b815161ffff81168114610afe57600080fd5b9392505050565b81810381811115610b2657634e487b7160e01b600052601160045260246000fd5b9291505056fea264697066735822122090562136fd811225a5ca0875c4867eb7d847f4642df6fd4aa7bfaa5a05c2c3ee64736f6c63430008180033","opcodes":"PUSH1 0xA0 PUSH1 0x40 MSTORE CALLVALUE DUP1 ISZERO PUSH2 0x10 JUMPI PUSH1 0x0 DUP1 REVERT JUMPDEST POP PUSH1 0x40 MLOAD PUSH2 0xC4D CODESIZE SUB DUP1 PUSH2 0xC4D DUP4 CODECOPY DUP2 ADD PUSH1 0x40 DUP2 SWAP1 MSTORE PUSH2 0x2F SWAP2 PUSH2 0x9A JUMP JUMPDEST PUSH1 0x1 PUSH1 0x1 PUSH1 0xA0 SHL SUB DUP2 AND PUSH2 0x89 JUMPI PUSH1 0x40 MLOAD PUSH3 0x461BCD PUSH1 0xE5 SHL DUP2 MSTORE PUSH1 0x20 PUSH1 0x4 DUP3 ADD MSTORE PUSH1 0x15 PUSH1 0x24 DUP3 ADD MSTORE PUSH32 0x73636F7265207265616465722072657175697265640000000000000000000000 PUSH1 0x44 DUP3 ADD MSTORE PUSH1 0x64 ADD PUSH1 0x40 MLOAD DUP1 SWAP2 SUB SWAP1 REVERT JUMPDEST PUSH1 0x1 PUSH1 0x1 PUSH1 0xA0 SHL SUB AND PUSH1 0x80 MSTORE PUSH2 0xCA JUMP JUMPDEST PUSH1 0x0 PUSH1 0x20 DUP3 DUP5 SUB SLT ISZERO PUSH2 0xAC JUMPI PUSH1 0x0 DUP1 REVERT JUMPDEST DUP2 MLOAD PUSH1 0x1 PUSH1 0x1 PUSH1 0xA0 SHL SUB DUP2 AND DUP2 EQ PUSH2 0xC3 JUMPI PUSH1 0x0 DUP1 REVERT JUMPDEST SWAP4 SWAP3 POP POP POP JUMP JUMPDEST PUSH1 0x80 MLOAD PUSH2 0xB62 PUSH2 0xEB PUSH1 0x0 CODECOPY PUSH1 0x0 DUP2 DUP2 PUSH1 0xE4 ADD MSTORE PUSH2 0x31C ADD MSTORE PUSH2 0xB62 PUSH1 0x0 RETURN INVALID PUSH1 0x80 PUSH1 0x40 MSTORE CALLVALUE DUP1 ISZERO PUSH2 0x10 JUMPI PUSH1 0x0 DUP1 REVERT JUMPDEST POP PUSH1 0x4 CALLDATASIZE LT PUSH2 0x62 JUMPI PUSH1 0x0 CALLDATALOAD PUSH1 0xE0 SHR DUP1 PUSH4 0xB8EED10 EQ PUSH2 0x67 JUMPI DUP1 PUSH4 0x159AF569 EQ PUSH2 0x96 JUMPI DUP1 PUSH4 0x27C2F17C EQ PUSH2 0xB7 JUMPI DUP1 PUSH4 0xA56E11BC EQ PUSH2 0xCC JUMPI DUP1 PUSH4 0xA8ACA760 EQ PUSH2 0xDF JUMPI DUP1 PUSH4 0xC4A90815 EQ PUSH2 0x11E JUMPI JUMPDEST PUSH1 0x0 DUP1 REVERT JUMPDEST PUSH2 0x7A PUSH2 0x75 CALLDATASIZE PUSH1 0x4 PUSH2 0x94F JUMP JUMPDEST PUSH2 0x1A2 JUMP JUMPDEST PUSH1 0x40 MLOAD PUSH2 0x8D SWAP8 SWAP7 SWAP6 SWAP5 SWAP4 SWAP3 SWAP2 SWAP1 PUSH2 0x9A0 JUMP JUMPDEST PUSH1 0x40 MLOAD DUP1 SWAP2 SUB SWAP1 RETURN JUMPDEST PUSH2 0xA9 PUSH2 0xA4 CALLDATASIZE PUSH1 0x4 PUSH2 0x9FA JUMP JUMPDEST PUSH2 0x29E JUMP JUMPDEST PUSH1 0x40 MLOAD SWAP1 DUP2 MSTORE PUSH1 0x20 ADD PUSH2 0x8D JUMP JUMPDEST PUSH2 0xCA PUSH2 0xC5 CALLDATASIZE PUSH1 0x4 PUSH2 0xA2C JUMP JUMPDEST PUSH2 0x6D6 JUMP JUMPDEST STOP JUMPDEST PUSH2 0xA9 PUSH2 0xDA CALLDATASIZE PUSH1 0x4 PUSH2 0xA4E JUMP JUMPDEST PUSH2 0x85F JUMP JUMPDEST PUSH2 0x106 PUSH32 0x0 DUP2 JUMP JUMPDEST PUSH1 0x40 MLOAD PUSH1 0x1 PUSH1 0x1 PUSH1 0xA0 SHL SUB SWAP1 SWAP2 AND DUP2 MSTORE PUSH1 0x20 ADD PUSH2 0x8D JUMP JUMPDEST PUSH2 0x18E PUSH2 0x12C CALLDATASIZE PUSH1 0x4 PUSH2 0x94F JUMP JUMPDEST PUSH1 0x0 PUSH1 0x20 DUP2 SWAP1 MSTORE SWAP1 DUP2 MSTORE PUSH1 0x40 SWAP1 KECCAK256 DUP1 SLOAD PUSH1 0x1 DUP3 ADD SLOAD PUSH1 0x2 DUP4 ADD SLOAD PUSH1 0x3 DUP5 ADD SLOAD PUSH1 0x4 SWAP1 SWAP5 ADD SLOAD SWAP3 SWAP4 PUSH1 0x1 PUSH1 0x1 PUSH1 0xA0 SHL SUB DUP4 AND SWAP4 PUSH1 0xFF PUSH1 0x1 PUSH1 0xA0 SHL SWAP1 SWAP5 DIV DUP5 AND SWAP4 PUSH2 0xFFFF DUP3 AND SWAP2 PUSH8 0xFFFFFFFFFFFFFFFF PUSH3 0x10000 DUP3 DIV AND SWAP2 PUSH1 0x1 PUSH1 0x50 SHL SWAP1 SWAP2 DIV AND DUP9 JUMP JUMPDEST PUSH1 0x40 MLOAD PUSH2 0x8D SWAP9 SWAP8 SWAP7 SWAP6 SWAP5 SWAP4 SWAP3 SWAP2 SWAP1 PUSH2 0xA78 JUMP JUMPDEST PUSH1 0x0 DUP2 DUP2 MSTORE PUSH1 0x20 DUP2 DUP2 MSTORE PUSH1 0x40 DUP1 DUP4 KECCAK256 DUP2 MLOAD PUSH2 0x100 DUP2 ADD DUP4 MSTORE DUP2 SLOAD DUP2 MSTORE PUSH1 0x1 DUP3 ADD SLOAD PUSH1 0x1 PUSH1 0x1 PUSH1 0xA0 SHL SUB DUP2 AND SWAP5 DUP3 ADD SWAP5 SWAP1 SWAP5 MSTORE PUSH1 0xFF PUSH1 0x1 PUSH1 0xA0 SHL SWAP1 SWAP5 DIV DUP5 AND SWAP3 DUP2 ADD SWAP3 SWAP1 SWAP3 MSTORE PUSH1 0x2 DUP2 ADD SLOAD PUSH1 0x60 DUP4 ADD MSTORE PUSH1 0x3 DUP1 DUP3 ADD SLOAD PUSH1 0x80 DUP5 ADD MSTORE PUSH1 0x4 DUP3 ADD SLOAD PUSH2 0xFFFF DUP2 AND PUSH1 0xA0 DUP6 ADD MSTORE PUSH8 0xFFFFFFFFFFFFFFFF PUSH3 0x10000 DUP3 DIV AND PUSH1 0xC0 DUP6 ADD MSTORE DUP6 SWAP5 DUP6 SWAP5 DUP6 SWAP5 DUP6 SWAP5 DUP6 SWAP5 DUP6 SWAP5 DUP6 SWAP5 SWAP4 SWAP3 PUSH1 0xE0 DUP6 ADD SWAP3 PUSH1 0x1 PUSH1 0x50 SHL SWAP1 DIV SWAP1 SWAP2 AND SWAP1 DUP2 GT ISZERO PUSH2 0x24F JUMPI PUSH2 0x24F PUSH2 0x968 JUMP JUMPDEST PUSH1 0x3 DUP2 GT ISZERO PUSH2 0x260 JUMPI PUSH2 0x260 PUSH2 0x968 JUMP JUMPDEST SWAP1 MSTORE POP PUSH1 0x20 DUP2 ADD MLOAD PUSH1 0x40 DUP3 ADD MLOAD PUSH1 0x60 DUP4 ADD MLOAD PUSH1 0x80 DUP5 ADD MLOAD PUSH1 0xA0 DUP6 ADD MLOAD PUSH1 0xC0 DUP7 ADD MLOAD PUSH1 0xE0 SWAP1 SWAP7 ADD MLOAD SWAP5 SWAP16 SWAP4 SWAP15 POP SWAP2 SWAP13 POP SWAP11 POP SWAP9 POP SWAP2 SWAP7 POP SWAP5 POP SWAP3 POP POP POP JUMP JUMPDEST PUSH1 0x0 DUP1 DUP3 GT PUSH2 0x2E6 JUMPI PUSH1 0x40 MLOAD PUSH3 0x461BCD PUSH1 0xE5 SHL DUP2 MSTORE PUSH1 0x20 PUSH1 0x4 DUP3 ADD MSTORE PUSH1 0xF PUSH1 0x24 DUP3 ADD MSTORE PUSH15 0x185B5BDD5B9D081C995C5D5A5C9959 PUSH1 0x8A SHL PUSH1 0x44 DUP3 ADD MSTORE PUSH1 0x64 ADD JUMPDEST PUSH1 0x40 MLOAD DUP1 SWAP2 SUB SWAP1 REVERT JUMPDEST PUSH1 0x0 DUP1 PUSH1 0x0 PUSH2 0x2F4 DUP7 PUSH2 0x890 JUMP JUMPDEST PUSH1 0x40 MLOAD PUSH4 0xD47875D PUSH1 0xE4 SHL DUP2 MSTORE CALLER PUSH1 0x4 DUP3 ADD MSTORE SWAP3 SWAP6 POP SWAP1 SWAP4 POP SWAP2 POP PUSH1 0x0 SWAP1 PUSH1 0x1 PUSH1 0x1 PUSH1 0xA0 SHL SUB PUSH32 0x0 AND SWAP1 PUSH4 0xD47875D0 SWAP1 PUSH1 0x24 ADD PUSH1 0x20 PUSH1 0x40 MLOAD DUP1 DUP4 SUB DUP2 DUP7 GAS STATICCALL ISZERO DUP1 ISZERO PUSH2 0x363 JUMPI RETURNDATASIZE PUSH1 0x0 DUP1 RETURNDATACOPY RETURNDATASIZE PUSH1 0x0 REVERT JUMPDEST POP POP POP POP PUSH1 0x40 MLOAD RETURNDATASIZE PUSH1 0x1F NOT PUSH1 0x1F DUP3 ADD AND DUP3 ADD DUP1 PUSH1 0x40 MSTORE POP DUP2 ADD SWAP1 PUSH2 0x387 SWAP2 SWAP1 PUSH2 0xADA JUMP JUMPDEST SWAP1 POP DUP4 PUSH2 0xFFFF AND DUP2 PUSH2 0xFFFF AND LT ISZERO PUSH2 0x3D1 JUMPI PUSH1 0x40 MLOAD PUSH3 0x461BCD PUSH1 0xE5 SHL DUP2 MSTORE PUSH1 0x20 PUSH1 0x4 DUP3 ADD MSTORE PUSH1 0xD PUSH1 0x24 DUP3 ADD MSTORE PUSH13 0x73636F726520746F6F206C6F77 PUSH1 0x98 SHL PUSH1 0x44 DUP3 ADD MSTORE PUSH1 0x64 ADD PUSH2 0x2DD JUMP JUMPDEST DUP3 DUP7 GT ISZERO PUSH2 0x417 JUMPI PUSH1 0x40 MLOAD PUSH3 0x461BCD PUSH1 0xE5 SHL DUP2 MSTORE PUSH1 0x20 PUSH1 0x4 DUP3 ADD MSTORE PUSH1 0x13 PUSH1 0x24 DUP3 ADD MSTORE PUSH19 0x30B6B7BAB73A1032BC31B2B2B239903A34B2B9 PUSH1 0x69 SHL PUSH1 0x44 DUP3 ADD MSTORE PUSH1 0x64 ADD PUSH2 0x2DD JUMP JUMPDEST CALLER PUSH1 0x0 DUP2 DUP2 MSTORE PUSH1 0x1 PUSH1 0x20 SWAP1 DUP2 MSTORE PUSH1 0x40 SWAP2 DUP3 SWAP1 KECCAK256 SLOAD SWAP2 MLOAD PUSH1 0x60 SWAP4 SWAP1 SWAP4 SHL PUSH12 0xFFFFFFFFFFFFFFFFFFFFFFFF NOT AND SWAP1 DUP4 ADD MSTORE PUSH1 0xF8 DUP10 SWAP1 SHL PUSH1 0x1 PUSH1 0x1 PUSH1 0xF8 SHL SUB NOT AND PUSH1 0x34 DUP4 ADD MSTORE PUSH1 0x35 DUP3 ADD DUP9 SWAP1 MSTORE TIMESTAMP PUSH1 0x55 DUP4 ADD MSTORE PUSH1 0x75 DUP3 ADD MSTORE PUSH1 0x95 ADD PUSH1 0x40 DUP1 MLOAD PUSH1 0x1F NOT DUP2 DUP5 SUB ADD DUP2 MSTORE SWAP2 DUP2 MSTORE DUP2 MLOAD PUSH1 0x20 SWAP3 DUP4 ADD KECCAK256 PUSH1 0x0 DUP2 DUP2 MSTORE SWAP3 DUP4 SWAP1 MSTORE SWAP1 DUP3 KECCAK256 SWAP1 SWAP7 POP SWAP1 PUSH1 0x4 DUP3 ADD SLOAD PUSH1 0x1 PUSH1 0x50 SHL SWAP1 DIV PUSH1 0xFF AND PUSH1 0x3 DUP2 GT ISZERO PUSH2 0x4B7 JUMPI PUSH2 0x4B7 PUSH2 0x968 JUMP JUMPDEST EQ PUSH2 0x4F2 JUMPI PUSH1 0x40 MLOAD PUSH3 0x461BCD PUSH1 0xE5 SHL DUP2 MSTORE PUSH1 0x20 PUSH1 0x4 DUP3 ADD MSTORE PUSH1 0xB PUSH1 0x24 DUP3 ADD MSTORE PUSH11 0x6C6F616E20657869737473 PUSH1 0xA8 SHL PUSH1 0x44 DUP3 ADD MSTORE PUSH1 0x64 ADD PUSH2 0x2DD JUMP JUMPDEST PUSH1 0x40 MLOAD DUP1 PUSH2 0x100 ADD PUSH1 0x40 MSTORE DUP1 DUP8 DUP2 MSTORE PUSH1 0x20 ADD CALLER PUSH1 0x1 PUSH1 0x1 PUSH1 0xA0 SHL SUB AND DUP2 MSTORE PUSH1 0x20 ADD DUP10 PUSH1 0xFF AND DUP2 MSTORE PUSH1 0x20 ADD DUP9 DUP2 MSTORE PUSH1 0x20 ADD DUP9 DUP2 MSTORE PUSH1 0x20 ADD DUP5 PUSH2 0xFFFF AND DUP2 MSTORE PUSH1 0x20 ADD TIMESTAMP PUSH8 0xFFFFFFFFFFFFFFFF AND DUP2 MSTORE PUSH1 0x20 ADD PUSH1 0x1 PUSH1 0x3 DUP2 GT ISZERO PUSH2 0x555 JUMPI PUSH2 0x555 PUSH2 0x968 JUMP JUMPDEST SWAP1 MSTORE PUSH1 0x0 DUP8 DUP2 MSTORE PUSH1 0x20 DUP2 DUP2 MSTORE PUSH1 0x40 SWAP2 DUP3 SWAP1 KECCAK256 DUP4 MLOAD DUP2 SSTORE SWAP1 DUP4 ADD MLOAD PUSH1 0x1 DUP3 ADD DUP1 SLOAD SWAP4 DUP6 ADD MLOAD PUSH1 0xFF AND PUSH1 0x1 PUSH1 0xA0 SHL MUL PUSH1 0x1 PUSH1 0x1 PUSH1 0xA8 SHL SUB NOT SWAP1 SWAP5 AND PUSH1 0x1 PUSH1 0x1 PUSH1 0xA0 SHL SUB SWAP1 SWAP3 AND SWAP2 SWAP1 SWAP2 OR SWAP3 SWAP1 SWAP3 OR SWAP1 SWAP2 SSTORE PUSH1 0x60 DUP3 ADD MLOAD PUSH1 0x2 DUP3 ADD SSTORE PUSH1 0x80 DUP3 ADD MLOAD PUSH1 0x3 DUP1 DUP4 ADD SWAP2 SWAP1 SWAP2 SSTORE PUSH1 0xA0 DUP4 ADD MLOAD PUSH1 0x4 DUP4 ADD DUP1 SLOAD PUSH1 0xC0 DUP7 ADD MLOAD PUSH8 0xFFFFFFFFFFFFFFFF AND PUSH3 0x10000 MUL PUSH10 0xFFFFFFFFFFFFFFFFFFFF NOT SWAP1 SWAP2 AND PUSH2 0xFFFF SWAP1 SWAP4 AND SWAP3 SWAP1 SWAP3 OR SWAP2 SWAP1 SWAP2 OR DUP1 DUP3 SSTORE PUSH1 0xE0 DUP6 ADD MLOAD SWAP3 PUSH1 0xFF PUSH1 0x50 SHL NOT SWAP1 SWAP2 AND SWAP1 PUSH1 0x1 PUSH1 0x50 SHL SWAP1 DUP5 SWAP1 DUP2 GT ISZERO PUSH2 0x622 JUMPI PUSH2 0x622 PUSH2 0x968 JUMP JUMPDEST MUL OR SWAP1 SSTORE POP POP CALLER PUSH1 0x0 DUP2 DUP2 MSTORE PUSH1 0x1 PUSH1 0x20 DUP2 DUP2 MSTORE PUSH1 0x40 DUP1 DUP5 KECCAK256 DUP1 SLOAD SWAP4 DUP5 ADD DUP2 SSTORE DUP5 MSTORE SWAP3 DUP2 SWAP1 KECCAK256 SWAP1 SWAP2 ADD DUP11 SWAP1 SSTORE DUP2 MLOAD PUSH1 0xFF DUP14 AND DUP2 MSTORE SWAP1 DUP2 ADD DUP12 SWAP1 MSTORE SWAP2 SWAP3 POP DUP9 SWAP2 PUSH32 0x8A4EE5FC49A9C0685033BED209FD591D07A14B7C3045640D29D4A39B0F179FE1 SWAP2 ADD PUSH1 0x40 MLOAD DUP1 SWAP2 SUB SWAP1 LOG3 PUSH1 0x40 DUP1 MLOAD DUP9 DUP2 MSTORE PUSH2 0xFFFF DUP6 AND PUSH1 0x20 DUP3 ADD MSTORE CALLER SWAP2 DUP9 SWAP2 PUSH32 0xFB993E800D39AC56AB73BF478E5FBC9650774B23F40AFF32FDE8EA4C94345737 SWAP2 ADD PUSH1 0x40 MLOAD DUP1 SWAP2 SUB SWAP1 LOG3 POP POP POP POP POP SWAP3 SWAP2 POP POP JUMP JUMPDEST PUSH1 0x0 DUP2 GT PUSH2 0x718 JUMPI PUSH1 0x40 MLOAD PUSH3 0x461BCD PUSH1 0xE5 SHL DUP2 MSTORE PUSH1 0x20 PUSH1 0x4 DUP3 ADD MSTORE PUSH1 0xF PUSH1 0x24 DUP3 ADD MSTORE PUSH15 0x185B5BDD5B9D081C995C5D5A5C9959 PUSH1 0x8A SHL PUSH1 0x44 DUP3 ADD MSTORE PUSH1 0x64 ADD PUSH2 0x2DD JUMP JUMPDEST PUSH1 0x0 DUP3 DUP2 MSTORE PUSH1 0x20 DUP2 SWAP1 MSTORE PUSH1 0x40 SWAP1 KECCAK256 PUSH1 0x1 PUSH1 0x4 DUP3 ADD SLOAD PUSH1 0x1 PUSH1 0x50 SHL SWAP1 DIV PUSH1 0xFF AND PUSH1 0x3 DUP2 GT ISZERO PUSH2 0x748 JUMPI PUSH2 0x748 PUSH2 0x968 JUMP JUMPDEST EQ PUSH2 0x785 JUMPI PUSH1 0x40 MLOAD PUSH3 0x461BCD PUSH1 0xE5 SHL DUP2 MSTORE PUSH1 0x20 PUSH1 0x4 DUP3 ADD MSTORE PUSH1 0xD PUSH1 0x24 DUP3 ADD MSTORE PUSH13 0x6C6F616E20696E616374697665 PUSH1 0x98 SHL PUSH1 0x44 DUP3 ADD MSTORE PUSH1 0x64 ADD PUSH2 0x2DD JUMP JUMPDEST PUSH1 0x1 DUP2 ADD SLOAD PUSH1 0x1 PUSH1 0x1 PUSH1 0xA0 SHL SUB AND CALLER EQ PUSH2 0x7D1 JUMPI PUSH1 0x40 MLOAD PUSH3 0x461BCD PUSH1 0xE5 SHL DUP2 MSTORE PUSH1 0x20 PUSH1 0x4 DUP3 ADD MSTORE PUSH1 0xD PUSH1 0x24 DUP3 ADD MSTORE PUSH13 0x37B7363C903137B93937BBB2B9 PUSH1 0x99 SHL PUSH1 0x44 DUP3 ADD MSTORE PUSH1 0x64 ADD PUSH2 0x2DD JUMP JUMPDEST DUP1 PUSH1 0x3 ADD SLOAD DUP3 LT PUSH2 0x7FD JUMPI PUSH1 0x0 PUSH1 0x3 DUP3 ADD SSTORE PUSH1 0x4 DUP2 ADD DUP1 SLOAD PUSH1 0xFF PUSH1 0x50 SHL NOT AND PUSH1 0x1 PUSH1 0x51 SHL OR SWAP1 SSTORE PUSH2 0x817 JUMP JUMPDEST DUP2 DUP2 PUSH1 0x3 ADD PUSH1 0x0 DUP3 DUP3 SLOAD PUSH2 0x811 SWAP2 SWAP1 PUSH2 0xB05 JUMP JUMPDEST SWAP1 SWAP2 SSTORE POP POP JUMPDEST PUSH1 0x3 DUP2 ADD SLOAD PUSH1 0x40 DUP1 MLOAD DUP5 DUP2 MSTORE PUSH1 0x20 DUP2 ADD SWAP3 SWAP1 SWAP3 MSTORE CALLER SWAP2 DUP6 SWAP2 PUSH32 0xCFE13B548FC1743507F7DD02D10678DF3BAE7B86124955C0F831DB4622146F95 SWAP2 ADD PUSH1 0x40 MLOAD DUP1 SWAP2 SUB SWAP1 LOG3 POP POP POP JUMP JUMPDEST PUSH1 0x1 PUSH1 0x20 MSTORE DUP2 PUSH1 0x0 MSTORE PUSH1 0x40 PUSH1 0x0 KECCAK256 DUP2 DUP2 SLOAD DUP2 LT PUSH2 0x87B JUMPI PUSH1 0x0 DUP1 REVERT JUMPDEST SWAP1 PUSH1 0x0 MSTORE PUSH1 0x20 PUSH1 0x0 KECCAK256 ADD PUSH1 0x0 SWAP2 POP SWAP2 POP POP SLOAD DUP2 JUMP JUMPDEST PUSH1 0x0 DUP1 PUSH1 0x0 DUP4 PUSH1 0xFF AND PUSH1 0x1 SUB PUSH2 0x8B4 JUMPI POP PUSH2 0x12C SWAP2 POP PUSH3 0xF4240 SWAP1 POP PUSH2 0x708 PUSH2 0x948 JUMP JUMPDEST DUP4 PUSH1 0xFF AND PUSH1 0x2 SUB PUSH2 0x8D3 JUMPI POP PUSH2 0x1C2 SWAP2 POP PUSH3 0x2DC6C0 SWAP1 POP PUSH2 0x5DC PUSH2 0x948 JUMP JUMPDEST DUP4 PUSH1 0xFF AND PUSH1 0x3 SUB PUSH2 0x8F2 JUMPI POP PUSH2 0x258 SWAP2 POP PUSH3 0x7270E0 SWAP1 POP PUSH2 0x4B0 PUSH2 0x948 JUMP JUMPDEST DUP4 PUSH1 0xFF AND PUSH1 0x4 SUB PUSH2 0x911 JUMPI POP PUSH2 0x2BC SWAP2 POP PUSH3 0xE4E1C0 SWAP1 POP PUSH2 0x3E8 PUSH2 0x948 JUMP JUMPDEST PUSH1 0x40 MLOAD PUSH3 0x461BCD PUSH1 0xE5 SHL DUP2 MSTORE PUSH1 0x20 PUSH1 0x4 DUP3 ADD MSTORE PUSH1 0xC PUSH1 0x24 DUP3 ADD MSTORE PUSH12 0x34B73B30B634B2103A34B2B9 PUSH1 0xA1 SHL PUSH1 0x44 DUP3 ADD MSTORE PUSH1 0x64 ADD PUSH2 0x2DD JUMP JUMPDEST SWAP2 SWAP4 SWAP1 SWAP3 POP JUMP JUMPDEST PUSH1 0x0 PUSH1 0x20 DUP3 DUP5 SUB SLT ISZERO PUSH2 0x961 JUMPI PUSH1 0x0 DUP1 REVERT JUMPDEST POP CALLDATALOAD SWAP2 SWAP1 POP JUMP JUMPDEST PUSH4 0x4E487B71 PUSH1 0xE0 SHL PUSH1 0x0 MSTORE PUSH1 0x21 PUSH1 0x4 MSTORE PUSH1 0x24 PUSH1 0x0 REVERT JUMPDEST PUSH1 0x4 DUP2 LT PUSH2 0x99C JUMPI PUSH4 0x4E487B71 PUSH1 0xE0 SHL PUSH1 0x0 MSTORE PUSH1 0x21 PUSH1 0x4 MSTORE PUSH1 0x24 PUSH1 0x0 REVERT JUMPDEST SWAP1 MSTORE JUMP JUMPDEST PUSH1 0x1 PUSH1 0x1 PUSH1 0xA0 SHL SUB DUP9 AND DUP2 MSTORE PUSH1 0xFF DUP8 AND PUSH1 0x20 DUP3 ADD MSTORE PUSH1 0x40 DUP2 ADD DUP7 SWAP1 MSTORE PUSH1 0x60 DUP2 ADD DUP6 SWAP1 MSTORE PUSH2 0xFFFF DUP5 AND PUSH1 0x80 DUP3 ADD MSTORE PUSH8 0xFFFFFFFFFFFFFFFF DUP4 AND PUSH1 0xA0 DUP3 ADD MSTORE PUSH1 0xE0 DUP2 ADD PUSH2 0x9EE PUSH1 0xC0 DUP4 ADD DUP5 PUSH2 0x97E JUMP JUMPDEST SWAP9 SWAP8 POP POP POP POP POP POP POP POP JUMP JUMPDEST PUSH1 0x0 DUP1 PUSH1 0x40 DUP4 DUP6 SUB SLT ISZERO PUSH2 0xA0D JUMPI PUSH1 0x0 DUP1 REVERT JUMPDEST DUP3 CALLDATALOAD PUSH1 0xFF DUP2 AND DUP2 EQ PUSH2 0xA1E JUMPI PUSH1 0x0 DUP1 REVERT JUMPDEST SWAP5 PUSH1 0x20 SWAP4 SWAP1 SWAP4 ADD CALLDATALOAD SWAP4 POP POP POP JUMP JUMPDEST PUSH1 0x0 DUP1 PUSH1 0x40 DUP4 DUP6 SUB SLT ISZERO PUSH2 0xA3F JUMPI PUSH1 0x0 DUP1 REVERT JUMPDEST POP POP DUP1 CALLDATALOAD SWAP3 PUSH1 0x20 SWAP1 SWAP2 ADD CALLDATALOAD SWAP2 POP JUMP JUMPDEST PUSH1 0x0 DUP1 PUSH1 0x40 DUP4 DUP6 SUB SLT ISZERO PUSH2 0xA61 JUMPI PUSH1 0x0 DUP1 REVERT JUMPDEST DUP3 CALLDATALOAD PUSH1 0x1 PUSH1 0x1 PUSH1 0xA0 SHL SUB DUP2 AND DUP2 EQ PUSH2 0xA1E JUMPI PUSH1 0x0 DUP1 REVERT JUMPDEST DUP9 DUP2 MSTORE PUSH1 0x1 PUSH1 0x1 PUSH1 0xA0 SHL SUB DUP9 AND PUSH1 0x20 DUP3 ADD MSTORE PUSH1 0xFF DUP8 AND PUSH1 0x40 DUP3 ADD MSTORE PUSH1 0x60 DUP2 ADD DUP7 SWAP1 MSTORE PUSH1 0x80 DUP2 ADD DUP6 SWAP1 MSTORE PUSH2 0xFFFF DUP5 AND PUSH1 0xA0 DUP3 ADD MSTORE PUSH8 0xFFFFFFFFFFFFFFFF DUP4 AND PUSH1 0xC0 DUP3 ADD MSTORE PUSH2 0x100 DUP2 ADD PUSH2 0xACD PUSH1 0xE0 DUP4 ADD DUP5 PUSH2 0x97E JUMP JUMPDEST SWAP10 SWAP9 POP POP POP POP POP POP POP POP POP JUMP JUMPDEST PUSH1 0x0 PUSH1 0x20 DUP3 DUP5 SUB SLT ISZERO PUSH2 0xAEC JUMPI PUSH1 0x0 DUP1 REVERT JUMPDEST DUP2 MLOAD PUSH2 0xFFFF DUP2 AND DUP2 EQ PUSH2 0xAFE JUMPI PUSH1 0x0 DUP1 REVERT JUMPDEST SWAP4 SWAP3 POP POP POP JUMP JUMPDEST DUP2 DUP2 SUB DUP2 DUP2 GT ISZERO PUSH2 0xB26 JUMPI PUSH4 0x4E487B71 PUSH1 0xE0 SHL PUSH1 0x0 MSTORE PUSH1 0x11 PUSH1 0x4 MSTORE PUSH1 0x24 PUSH1 0x0 REVERT JUMPDEST SWAP3 SWAP2 POP POP JUMP INVALID LOG2 PUSH5 0x6970667358 0x22 SLT KECCAK256 SWAP1 JUMP 0x21 CALLDATASIZE REVERT DUP2 SLT 0x25 0xA5 0xCA ADDMOD PUSH22 0xC4867EB7D847F4642DF6FD4AA7BFAA5A05C2C3EE6473 PUSH16 0x6C634300081800330000000000000000 "},"methodIdentifiers":{"borrowerLoanIds(address,uint256)":"a56e11bc","getLoanStatus(bytes32)":"0b8eed10","loans(bytes32)":"c4a90815","rentScoreReader()":"a8aca760","repayLoan(bytes32,uint256)":"27c2f17c","requestLoan(uint8,uint256)":"159af569"}}}}}