{"contracts/RentScoreReader.sol":{"RentScoreReader":{"abi":[{"inputs":[{"internalType":"address","name":"paymentRecordNFTAddress","type":"address"}],"stateMutability":"nonpayable","type":"constructor"},{"anonymous":false,"inputs":[{"indexed":true,"internalType":"address","name":"tenant","type":"address"},{"indexed":false,"internalType":"uint16","name":"score","type":"uint16"},{"indexed":false,"internalType":"bytes32","name":"snapshotId","type":"bytes32"}],"name":"ScoreSnapshotStored","type":"event"},{"inputs":[{"internalType":"address","name":"tenant","type":"address"}],"name":"getPaymentCount","outputs":[{"internalType":"uint256","name":"","type":"uint256"}],"stateMutability":"view","type":"function"},{"inputs":[{"internalType":"address","name":"tenant","type":"address"}],"name":"getScore","outputs":[{"internalType":"uint16","name":"","type":"uint16"}],"stateMutability":"view","type":"function"},{"inputs":[{"internalType":"address","name":"tenant","type":"address"},{"internalType":"uint8","name":"tier","type":"uint8"}],"name":"isEligible","outputs":[{"internalType":"bool","name":"","type":"bool"}],"stateMutability":"view","type":"function"},{"inputs":[],"name":"paymentRecordNFT","outputs":[{"internalType":"contract IPaymentRecordNFT","name":"","type":"address"}],"stateMutability":"view","type":"function"},{"inputs":[{"internalType":"address","name":"tenant","type":"address"}],"name":"snapshotScore","outputs":[{"internalType":"bytes32","name":"snapshotId","type":"bytes32"},{"internalType":"uint16","name":"score","type":"uint16"}],"stateMutability":"nonpayable","type":"function"}],"evm":{"bytecode":{"linkReferences":{},"object":"60a060405234801561001057600080fd5b50604051610ae0380380610ae083398101604081905261002f9161009a565b6001600160a01b0381166100895760405162461bcd60e51b815260206004820152601460248201527f7061796d656e74206e6674207265717569726564000000000000000000000000604482015260640160405180910390fd5b6001600160a01b03166080526100ca565b6000602082840312156100ac57600080fd5b81516001600160a01b03811681146100c357600080fd5b9392505050565b6080516109e76100f9600039600081816087015281816101570152818161021f01526102ea01526109e76000f3fe608060405234801561001057600080fd5b50600436106100575760003560e01c80634feb20ff1461005c5780636372bbff14610082578063bfcbd230146100c1578063d47875d0146100e4578063dee0ef4f1461010a575b600080fd5b61006f61006a3660046106f8565b610135565b6040519081526020015b60405180910390f35b6100a97f000000000000000000000000000000000000000000000000000000000000000081565b6040516001600160a01b039091168152602001610079565b6100d46100cf36600461072c565b6101cf565b6040519015158152602001610079565b6100f76100f23660046106f8565b6101fb565b60405161ffff9091168152602001610079565b61011d6101183660046106f8565b6105a5565b6040805192835261ffff909116602083015201610079565b6040516344e92a9360e11b81526001600160a01b0382811660048301526000917f0000000000000000000000000000000000000000000000000000000000000000909116906389d2552690602401600060405180830381865afa1580156101a0573d6000803e3d6000fd5b505050506040513d6000823e601f3d908101601f191682016040526101c89190810190610779565b5192915050565b6000806101db846101fb565b90506101e68361064f565b61ffff168161ffff1610159150505b92915050565b6040516344e92a9360e11b81526001600160a01b03828116600483015260009182917f000000000000000000000000000000000000000000000000000000000000000016906389d2552690602401600060405180830381865afa158015610266573d6000803e3d6000fd5b505050506040513d6000823e601f3d908101601f1916820160405261028e9190810190610779565b905080516000036102a25750609692915050565b60008060008067ffffffffffffffff905060008060068751116102c65760006102d4565b600687516102d4919061084d565b90506000805b885181101561044a5760008060007f00000000000000000000000000000000000000000000000000000000000000006001600160a01b031663a4a1328c8d868151811061032957610329610860565b60200260200101516040518263ffffffff1660e01b815260040161034f91815260200190565b606060405180830381865afa15801561036c573d6000803e3d6000fd5b505050506040513d601f19601f820116820180604052508101906103909190610876565b919450925090506103a1838a6108c6565b98508160ff166001036103c0576103b960018c6108c6565b9a506103d9565b8160ff166002036103d9576103d660018b6108c6565b99505b8767ffffffffffffffff168167ffffffffffffffff1610156103f9578097505b8667ffffffffffffffff168167ffffffffffffffff161115610419578096505b85841015801561042c57508160ff166001145b1561043f5761043c6001866108c6565b94505b5050506001016102da565b506096600061045a89601e6108d9565b905061012c81111561046b575061012c5b61047581836108f0565b915060068a51101580156104895750826006145b1561049c576104996032836108f0565b91505b60008a51886104ab919061092e565b9050620186a081106104c9576104c26032846108f0565b92506104eb565b61c35081106104dd576104c2601e846108f0565b6104e8600a846108f0565b92505b8667ffffffffffffffff168667ffffffffffffffff16111561055f57600062278d006105178989610942565b610521919061096a565b67ffffffffffffffff169050600c8110610547576105406032856108f0565b935061055d565b6006811061055d5761055a6019856108f0565b93505b505b61056a89600f6108d9565b6105749084610991565b9250600083121561058457600092505b6103528313156105945761035292505b50909b9a5050505050505050505050565b6000806105b1836101fb565b6040516bffffffffffffffffffffffff19606086901b1660208201526001600160f01b031960f083901b16603482015242603682015290915060560160408051601f19818403018152828252805160209182012061ffff8516845290830181905293506001600160a01b038516917f7b58212bbe78d0bded2e26998efd1b038bb41df97392a5f9a72e1202b4d10d8e910160405180910390a2915091565b60008160ff16600103610665575061012c919050565b8160ff1660020361067957506101c2919050565b8160ff1660030361068d5750610258919050565b8160ff166004036106a157506102bc919050565b60405162461bcd60e51b815260206004820152600c60248201526b34b73b30b634b2103a34b2b960a11b604482015260640160405180910390fd5b80356001600160a01b03811681146106f357600080fd5b919050565b60006020828403121561070a57600080fd5b610713826106dc565b9392505050565b60ff8116811461072957600080fd5b50565b6000806040838503121561073f57600080fd5b610748836106dc565b915060208301356107588161071a565b809150509250929050565b634e487b7160e01b600052604160045260246000fd5b6000602080838503121561078c57600080fd5b825167ffffffffffffffff808211156107a457600080fd5b818501915085601f8301126107b857600080fd5b8151818111156107ca576107ca610763565b8060051b604051601f19603f830116810181811085821117156107ef576107ef610763565b60405291825284820192508381018501918883111561080d57600080fd5b938501935b8285101561082b57845184529385019392850192610812565b98975050505050505050565b634e487b7160e01b600052601160045260246000fd5b818103818111156101f5576101f5610837565b634e487b7160e01b600052603260045260246000fd5b60008060006060848603121561088b57600080fd5b83519250602084015161089d8161071a565b604085015190925067ffffffffffffffff811681146108bb57600080fd5b809150509250925092565b808201808211156101f5576101f5610837565b80820281158282048414176101f5576101f5610837565b808201828112600083128015821682158216171561091057610910610837565b505092915050565b634e487b7160e01b600052601260045260246000fd5b60008261093d5761093d610918565b500490565b67ffffffffffffffff82811682821603908082111561096357610963610837565b5092915050565b600067ffffffffffffffff8084168061098557610985610918565b92169190910492915050565b81810360008312801583831316838312821617156109635761096361083756fea2646970667358221220e42cc7528eded026552db76a8f33bbbf6e46caa709245d3b926664d19fb1977164736f6c63430008180033","opcodes":"PUSH1 0xA0 PUSH1 0x40 MSTORE CALLVALUE DUP1 ISZERO PUSH2 0x10 JUMPI PUSH1 0x0 DUP1 REVERT JUMPDEST POP PUSH1 0x40 MLOAD PUSH2 0xAE0 CODESIZE SUB DUP1 PUSH2 0xAE0 DUP4 CODECOPY DUP2 ADD PUSH1 0x40 DUP2 SWAP1 MSTORE PUSH2 0x2F SWAP2 PUSH2 0x9A JUMP JUMPDEST PUSH1 0x1 PUSH1 0x1 PUSH1 0xA0 SHL SUB DUP2 AND PUSH2 0x89 JUMPI PUSH1 0x40 MLOAD PUSH3 0x461BCD PUSH1 0xE5 SHL DUP2 MSTORE PUSH1 0x20 PUSH1 0x4 DUP3 ADD MSTORE PUSH1 0x14 PUSH1 0x24 DUP3 ADD MSTORE PUSH32 0x7061796D656E74206E6674207265717569726564000000000000000000000000 PUSH1 0x44 DUP3 ADD MSTORE PUSH1 0x64 ADD PUSH1 0x40 MLOAD DUP1 SWAP2 SUB SWAP1 REVERT JUMPDEST PUSH1 0x1 PUSH1 0x1 PUSH1 0xA0 SHL SUB AND PUSH1 0x80 MSTORE PUSH2 0xCA JUMP JUMPDEST PUSH1 0x0 PUSH1 0x20 DUP3 DUP5 SUB SLT ISZERO PUSH2 0xAC JUMPI PUSH1 0x0 DUP1 REVERT JUMPDEST DUP2 MLOAD PUSH1 0x1 PUSH1 0x1 PUSH1 0xA0 SHL SUB DUP2 AND DUP2 EQ PUSH2 0xC3 JUMPI PUSH1 0x0 DUP1 REVERT JUMPDEST SWAP4 SWAP3 POP POP POP JUMP JUMPDEST PUSH1 0x80 MLOAD PUSH2 0x9E7 PUSH2 0xF9 PUSH1 0x0 CODECOPY PUSH1 0x0 DUP2 DUP2 PUSH1 0x87 ADD MSTORE DUP2 DUP2 PUSH2 0x157 ADD MSTORE DUP2 DUP2 PUSH2 0x21F ADD MSTORE PUSH2 0x2EA ADD MSTORE PUSH2 0x9E7 PUSH1 0x0 RETURN INVALID PUSH1 0x80 PUSH1 0x40 MSTORE CALLVALUE DUP1 ISZERO PUSH2 0x10 JUMPI PUSH1 0x0 DUP1 REVERT JUMPDEST POP PUSH1 0x4 CALLDATASIZE LT PUSH2 0x57 JUMPI PUSH1 0x0 CALLDATALOAD PUSH1 0xE0 SHR DUP1 PUSH4 0x4FEB20FF EQ PUSH2 0x5C JUMPI DUP1 PUSH4 0x6372BBFF EQ PUSH2 0x82 JUMPI DUP1 PUSH4 0xBFCBD230 EQ PUSH2 0xC1 JUMPI DUP1 PUSH4 0xD47875D0 EQ PUSH2 0xE4 JUMPI DUP1 PUSH4 0xDEE0EF4F EQ PUSH2 0x10A JUMPI JUMPDEST PUSH1 0x0 DUP1 REVERT JUMPDEST PUSH2 0x6F PUSH2 0x6A CALLDATASIZE PUSH1 0x4 PUSH2 0x6F8 JUMP JUMPDEST PUSH2 0x135 JUMP JUMPDEST PUSH1 0x40 MLOAD SWAP1 DUP2 MSTORE PUSH1 0x20 ADD JUMPDEST PUSH1 0x40 MLOAD DUP1 SWAP2 SUB SWAP1 RETURN JUMPDEST PUSH2 0xA9 PUSH32 0x0 DUP2 JUMP JUMPDEST PUSH1 0x40 MLOAD PUSH1 0x1 PUSH1 0x1 PUSH1 0xA0 SHL SUB SWAP1 SWAP2 AND DUP2 MSTORE PUSH1 0x20 ADD PUSH2 0x79 JUMP JUMPDEST PUSH2 0xD4 PUSH2 0xCF CALLDATASIZE PUSH1 0x4 PUSH2 0x72C JUMP JUMPDEST PUSH2 0x1CF JUMP JUMPDEST PUSH1 0x40 MLOAD SWAP1 ISZERO ISZERO DUP2 MSTORE PUSH1 0x20 ADD PUSH2 0x79 JUMP JUMPDEST PUSH2 0xF7 PUSH2 0xF2 CALLDATASIZE PUSH1 0x4 PUSH2 0x6F8 JUMP JUMPDEST PUSH2 0x1FB JUMP JUMPDEST PUSH1 0x40 MLOAD PUSH2 0xFFFF SWAP1 SWAP2 AND DUP2 MSTORE PUSH1 0x20 ADD PUSH2 0x79 JUMP JUMPDEST PUSH2 0x11D PUSH2 0x118 CALLDATASIZE PUSH1 0x4 PUSH2 0x6F8 JUMP JUMPDEST PUSH2 0x5A5 JUMP JUMPDEST PUSH1 0x40 DUP1 MLOAD SWAP3 DUP4 MSTORE PUSH2 0xFFFF SWAP1 SWAP2 AND PUSH1 0x20 DUP4 ADD MSTORE ADD PUSH2 0x79 JUMP JUMPDEST PUSH1 0x40 MLOAD PUSH4 0x44E92A93 PUSH1 0xE1 SHL DUP2 MSTORE PUSH1 0x1 PUSH1 0x1 PUSH1 0xA0 SHL SUB DUP3 DUP2 AND PUSH1 0x4 DUP4 ADD MSTORE PUSH1 0x0 SWAP2 PUSH32 0x0 SWAP1 SWAP2 AND SWAP1 PUSH4 0x89D25526 SWAP1 PUSH1 0x24 ADD PUSH1 0x0 PUSH1 0x40 MLOAD DUP1 DUP4 SUB DUP2 DUP7 GAS STATICCALL ISZERO DUP1 ISZERO PUSH2 0x1A0 JUMPI RETURNDATASIZE PUSH1 0x0 DUP1 RETURNDATACOPY RETURNDATASIZE PUSH1 0x0 REVERT JUMPDEST POP POP POP POP PUSH1 0x40 MLOAD RETURNDATASIZE PUSH1 0x0 DUP3 RETURNDATACOPY PUSH1 0x1F RETURNDATASIZE SWAP1 DUP2 ADD PUSH1 0x1F NOT AND DUP3 ADD PUSH1 0x40 MSTORE PUSH2 0x1C8 SWAP2 SWAP1 DUP2 ADD SWAP1 PUSH2 0x779 JUMP JUMPDEST MLOAD SWAP3 SWAP2 POP POP JUMP JUMPDEST PUSH1 0x0 DUP1 PUSH2 0x1DB DUP5 PUSH2 0x1FB JUMP JUMPDEST SWAP1 POP PUSH2 0x1E6 DUP4 PUSH2 0x64F JUMP JUMPDEST PUSH2 0xFFFF AND DUP2 PUSH2 0xFFFF AND LT ISZERO SWAP2 POP POP JUMPDEST SWAP3 SWAP2 POP POP JUMP JUMPDEST PUSH1 0x40 MLOAD PUSH4 0x44E92A93 PUSH1 0xE1 SHL DUP2 MSTORE PUSH1 0x1 PUSH1 0x1 PUSH1 0xA0 SHL SUB DUP3 DUP2 AND PUSH1 0x4 DUP4 ADD MSTORE PUSH1 0x0 SWAP2 DUP3 SWAP2 PUSH32 0x0 AND SWAP1 PUSH4 0x89D25526 SWAP1 PUSH1 0x24 ADD PUSH1 0x0 PUSH1 0x40 MLOAD DUP1 DUP4 SUB DUP2 DUP7 GAS STATICCALL ISZERO DUP1 ISZERO PUSH2 0x266 JUMPI RETURNDATASIZE PUSH1 0x0 DUP1 RETURNDATACOPY RETURNDATASIZE PUSH1 0x0 REVERT JUMPDEST POP POP POP POP PUSH1 0x40 MLOAD RETURNDATASIZE PUSH1 0x0 DUP3 RETURNDATACOPY PUSH1 0x1F RETURNDATASIZE SWAP1 DUP2 ADD PUSH1 0x1F NOT AND DUP3 ADD PUSH1 0x40 MSTORE PUSH2 0x28E SWAP2 SWAP1 DUP2 ADD SWAP1 PUSH2 0x779 JUMP JUMPDEST SWAP1 POP DUP1 MLOAD PUSH1 0x0 SUB PUSH2 0x2A2 JUMPI POP PUSH1 0x96 SWAP3 SWAP2 POP POP JUMP JUMPDEST PUSH1 0x0 DUP1 PUSH1 0x0 DUP1 PUSH8 0xFFFFFFFFFFFFFFFF SWAP1 POP PUSH1 0x0 DUP1 PUSH1 0x6 DUP8 MLOAD GT PUSH2 0x2C6 JUMPI PUSH1 0x0 PUSH2 0x2D4 JUMP JUMPDEST PUSH1 0x6 DUP8 MLOAD PUSH2 0x2D4 SWAP2 SWAP1 PUSH2 0x84D JUMP JUMPDEST SWAP1 POP PUSH1 0x0 DUP1 JUMPDEST DUP9 MLOAD DUP2 LT ISZERO PUSH2 0x44A JUMPI PUSH1 0x0 DUP1 PUSH1 0x0 PUSH32 0x0 PUSH1 0x1 PUSH1 0x1 PUSH1 0xA0 SHL SUB AND PUSH4 0xA4A1328C DUP14 DUP7 DUP2 MLOAD DUP2 LT PUSH2 0x329 JUMPI PUSH2 0x329 PUSH2 0x860 JUMP JUMPDEST PUSH1 0x20 MUL PUSH1 0x20 ADD ADD MLOAD PUSH1 0x40 MLOAD DUP3 PUSH4 0xFFFFFFFF AND PUSH1 0xE0 SHL DUP2 MSTORE PUSH1 0x4 ADD PUSH2 0x34F SWAP2 DUP2 MSTORE PUSH1 0x20 ADD SWAP1 JUMP JUMPDEST PUSH1 0x60 PUSH1 0x40 MLOAD DUP1 DUP4 SUB DUP2 DUP7 GAS STATICCALL ISZERO DUP1 ISZERO PUSH2 0x36C JUMPI RETURNDATASIZE PUSH1 0x0 DUP1 RETURNDATACOPY RETURNDATASIZE PUSH1 0x0 REVERT JUMPDEST POP POP POP POP PUSH1 0x40 MLOAD RETURNDATASIZE PUSH1 0x1F NOT PUSH1 0x1F DUP3 ADD AND DUP3 ADD DUP1 PUSH1 0x40 MSTORE POP DUP2 ADD SWAP1 PUSH2 0x390 SWAP2 SWAP1 PUSH2 0x876 JUMP JUMPDEST SWAP2 SWAP5 POP SWAP3 POP SWAP1 POP PUSH2 0x3A1 DUP4 DUP11 PUSH2 0x8C6 JUMP JUMPDEST SWAP9 POP DUP2 PUSH1 0xFF AND PUSH1 0x1 SUB PUSH2 0x3C0 JUMPI PUSH2 0x3B9 PUSH1 0x1 DUP13 PUSH2 0x8C6 JUMP JUMPDEST SWAP11 POP PUSH2 0x3D9 JUMP JUMPDEST DUP2 PUSH1 0xFF AND PUSH1 0x2 SUB PUSH2 0x3D9 JUMPI PUSH2 0x3D6 PUSH1 0x1 DUP12 PUSH2 0x8C6 JUMP JUMPDEST SWAP10 POP JUMPDEST DUP8 PUSH8 0xFFFFFFFFFFFFFFFF AND DUP2 PUSH8 0xFFFFFFFFFFFFFFFF AND LT ISZERO PUSH2 0x3F9 JUMPI DUP1 SWAP8 POP JUMPDEST DUP7 PUSH8 0xFFFFFFFFFFFFFFFF AND DUP2 PUSH8 0xFFFFFFFFFFFFFFFF AND GT ISZERO PUSH2 0x419 JUMPI DUP1 SWAP7 POP JUMPDEST DUP6 DUP5 LT ISZERO DUP1 ISZERO PUSH2 0x42C JUMPI POP DUP2 PUSH1 0xFF AND PUSH1 0x1 EQ JUMPDEST ISZERO PUSH2 0x43F JUMPI PUSH2 0x43C PUSH1 0x1 DUP7 PUSH2 0x8C6 JUMP JUMPDEST SWAP5 POP JUMPDEST POP POP POP PUSH1 0x1 ADD PUSH2 0x2DA JUMP JUMPDEST POP PUSH1 0x96 PUSH1 0x0 PUSH2 0x45A DUP10 PUSH1 0x1E PUSH2 0x8D9 JUMP JUMPDEST SWAP1 POP PUSH2 0x12C DUP2 GT ISZERO PUSH2 0x46B JUMPI POP PUSH2 0x12C JUMPDEST PUSH2 0x475 DUP2 DUP4 PUSH2 0x8F0 JUMP JUMPDEST SWAP2 POP PUSH1 0x6 DUP11 MLOAD LT ISZERO DUP1 ISZERO PUSH2 0x489 JUMPI POP DUP3 PUSH1 0x6 EQ JUMPDEST ISZERO PUSH2 0x49C JUMPI PUSH2 0x499 PUSH1 0x32 DUP4 PUSH2 0x8F0 JUMP JUMPDEST SWAP2 POP JUMPDEST PUSH1 0x0 DUP11 MLOAD DUP9 PUSH2 0x4AB SWAP2 SWAP1 PUSH2 0x92E JUMP JUMPDEST SWAP1 POP PUSH3 0x186A0 DUP2 LT PUSH2 0x4C9 JUMPI PUSH2 0x4C2 PUSH1 0x32 DUP5 PUSH2 0x8F0 JUMP JUMPDEST SWAP3 POP PUSH2 0x4EB JUMP JUMPDEST PUSH2 0xC350 DUP2 LT PUSH2 0x4DD JUMPI PUSH2 0x4C2 PUSH1 0x1E DUP5 PUSH2 0x8F0 JUMP JUMPDEST PUSH2 0x4E8 PUSH1 0xA DUP5 PUSH2 0x8F0 JUMP JUMPDEST SWAP3 POP JUMPDEST DUP7 PUSH8 0xFFFFFFFFFFFFFFFF AND DUP7 PUSH8 0xFFFFFFFFFFFFFFFF AND GT ISZERO PUSH2 0x55F JUMPI PUSH1 0x0 PUSH3 0x278D00 PUSH2 0x517 DUP10 DUP10 PUSH2 0x942 JUMP JUMPDEST PUSH2 0x521 SWAP2 SWAP1 PUSH2 0x96A JUMP JUMPDEST PUSH8 0xFFFFFFFFFFFFFFFF AND SWAP1 POP PUSH1 0xC DUP2 LT PUSH2 0x547 JUMPI PUSH2 0x540 PUSH1 0x32 DUP6 PUSH2 0x8F0 JUMP JUMPDEST SWAP4 POP PUSH2 0x55D JUMP JUMPDEST PUSH1 0x6 DUP2 LT PUSH2 0x55D JUMPI PUSH2 0x55A PUSH1 0x19 DUP6 PUSH2 0x8F0 JUMP JUMPDEST SWAP4 POP JUMPDEST POP JUMPDEST PUSH2 0x56A DUP10 PUSH1 0xF PUSH2 0x8D9 JUMP JUMPDEST PUSH2 0x574 SWAP1 DUP5 PUSH2 0x991 JUMP JUMPDEST SWAP3 POP PUSH1 0x0 DUP4 SLT ISZERO PUSH2 0x584 JUMPI PUSH1 0x0 SWAP3 POP JUMPDEST PUSH2 0x352 DUP4 SGT ISZERO PUSH2 0x594 JUMPI PUSH2 0x352 SWAP3 POP JUMPDEST POP SWAP1 SWAP12 SWAP11 POP POP POP POP POP POP POP POP POP POP POP JUMP JUMPDEST PUSH1 0x0 DUP1 PUSH2 0x5B1 DUP4 PUSH2 0x1FB JUMP JUMPDEST PUSH1 0x40 MLOAD PUSH12 0xFFFFFFFFFFFFFFFFFFFFFFFF NOT PUSH1 0x60 DUP7 SWAP1 SHL AND PUSH1 0x20 DUP3 ADD MSTORE PUSH1 0x1 PUSH1 0x1 PUSH1 0xF0 SHL SUB NOT PUSH1 0xF0 DUP4 SWAP1 SHL AND PUSH1 0x34 DUP3 ADD MSTORE TIMESTAMP PUSH1 0x36 DUP3 ADD MSTORE SWAP1 SWAP2 POP PUSH1 0x56 ADD PUSH1 0x40 DUP1 MLOAD PUSH1 0x1F NOT DUP2 DUP5 SUB ADD DUP2 MSTORE DUP3 DUP3 MSTORE DUP1 MLOAD PUSH1 0x20 SWAP2 DUP3 ADD KECCAK256 PUSH2 0xFFFF DUP6 AND DUP5 MSTORE SWAP1 DUP4 ADD DUP2 SWAP1 MSTORE SWAP4 POP PUSH1 0x1 PUSH1 0x1 PUSH1 0xA0 SHL SUB DUP6 AND SWAP2 PUSH32 0x7B58212BBE78D0BDED2E26998EFD1B038BB41DF97392A5F9A72E1202B4D10D8E SWAP2 ADD PUSH1 0x40 MLOAD DUP1 SWAP2 SUB SWAP1 LOG2 SWAP2 POP SWAP2 JUMP JUMPDEST PUSH1 0x0 DUP2 PUSH1 0xFF AND PUSH1 0x1 SUB PUSH2 0x665 JUMPI POP PUSH2 0x12C SWAP2 SWAP1 POP JUMP JUMPDEST DUP2 PUSH1 0xFF AND PUSH1 0x2 SUB PUSH2 0x679 JUMPI POP PUSH2 0x1C2 SWAP2 SWAP1 POP JUMP JUMPDEST DUP2 PUSH1 0xFF AND PUSH1 0x3 SUB PUSH2 0x68D JUMPI POP PUSH2 0x258 SWAP2 SWAP1 POP JUMP JUMPDEST DUP2 PUSH1 0xFF AND PUSH1 0x4 SUB PUSH2 0x6A1 JUMPI POP PUSH2 0x2BC SWAP2 SWAP1 POP JUMP JUMPDEST PUSH1 0x40 MLOAD PUSH3 0x461BCD PUSH1 0xE5 SHL DUP2 MSTORE PUSH1 0x20 PUSH1 0x4 DUP3 ADD MSTORE PUSH1 0xC PUSH1 0x24 DUP3 ADD MSTORE PUSH12 0x34B73B30B634B2103A34B2B9 PUSH1 0xA1 SHL PUSH1 0x44 DUP3 ADD MSTORE PUSH1 0x64 ADD PUSH1 0x40 MLOAD DUP1 SWAP2 SUB SWAP1 REVERT JUMPDEST DUP1 CALLDATALOAD PUSH1 0x1 PUSH1 0x1 PUSH1 0xA0 SHL SUB DUP2 AND DUP2 EQ PUSH2 0x6F3 JUMPI PUSH1 0x0 DUP1 REVERT JUMPDEST SWAP2 SWAP1 POP JUMP JUMPDEST PUSH1 0x0 PUSH1 0x20 DUP3 DUP5 SUB SLT ISZERO PUSH2 0x70A JUMPI PUSH1 0x0 DUP1 REVERT JUMPDEST PUSH2 0x713 DUP3 PUSH2 0x6DC JUMP JUMPDEST SWAP4 SWAP3 POP POP POP JUMP JUMPDEST PUSH1 0xFF DUP2 AND DUP2 EQ PUSH2 0x729 JUMPI PUSH1 0x0 DUP1 REVERT JUMPDEST POP JUMP JUMPDEST PUSH1 0x0 DUP1 PUSH1 0x40 DUP4 DUP6 SUB SLT ISZERO PUSH2 0x73F JUMPI PUSH1 0x0 DUP1 REVERT JUMPDEST PUSH2 0x748 DUP4 PUSH2 0x6DC JUMP JUMPDEST SWAP2 POP PUSH1 0x20 DUP4 ADD CALLDATALOAD PUSH2 0x758 DUP2 PUSH2 0x71A JUMP JUMPDEST DUP1 SWAP2 POP POP SWAP3 POP SWAP3 SWAP1 POP JUMP JUMPDEST PUSH4 0x4E487B71 PUSH1 0xE0 SHL PUSH1 0x0 MSTORE PUSH1 0x41 PUSH1 0x4 MSTORE PUSH1 0x24 PUSH1 0x0 REVERT JUMPDEST PUSH1 0x0 PUSH1 0x20 DUP1 DUP4 DUP6 SUB SLT ISZERO PUSH2 0x78C JUMPI PUSH1 0x0 DUP1 REVERT JUMPDEST DUP3 MLOAD PUSH8 0xFFFFFFFFFFFFFFFF DUP1 DUP3 GT ISZERO PUSH2 0x7A4 JUMPI PUSH1 0x0 DUP1 REVERT JUMPDEST DUP2 DUP6 ADD SWAP2 POP DUP6 PUSH1 0x1F DUP4 ADD SLT PUSH2 0x7B8 JUMPI PUSH1 0x0 DUP1 REVERT JUMPDEST DUP2 MLOAD DUP2 DUP2 GT ISZERO PUSH2 0x7CA JUMPI PUSH2 0x7CA PUSH2 0x763 JUMP JUMPDEST DUP1 PUSH1 0x5 SHL PUSH1 0x40 MLOAD PUSH1 0x1F NOT PUSH1 0x3F DUP4 ADD AND DUP2 ADD DUP2 DUP2 LT DUP6 DUP3 GT OR ISZERO PUSH2 0x7EF JUMPI PUSH2 0x7EF PUSH2 0x763 JUMP JUMPDEST PUSH1 0x40 MSTORE SWAP2 DUP3 MSTORE DUP5 DUP3 ADD SWAP3 POP DUP4 DUP2 ADD DUP6 ADD SWAP2 DUP9 DUP4 GT ISZERO PUSH2 0x80D JUMPI PUSH1 0x0 DUP1 REVERT JUMPDEST SWAP4 DUP6 ADD SWAP4 JUMPDEST DUP3 DUP6 LT ISZERO PUSH2 0x82B JUMPI DUP5 MLOAD DUP5 MSTORE SWAP4 DUP6 ADD SWAP4 SWAP3 DUP6 ADD SWAP3 PUSH2 0x812 JUMP JUMPDEST SWAP9 SWAP8 POP POP POP POP POP POP POP POP JUMP JUMPDEST PUSH4 0x4E487B71 PUSH1 0xE0 SHL PUSH1 0x0 MSTORE PUSH1 0x11 PUSH1 0x4 MSTORE PUSH1 0x24 PUSH1 0x0 REVERT JUMPDEST DUP2 DUP2 SUB DUP2 DUP2 GT ISZERO PUSH2 0x1F5 JUMPI PUSH2 0x1F5 PUSH2 0x837 JUMP JUMPDEST PUSH4 0x4E487B71 PUSH1 0xE0 SHL PUSH1 0x0 MSTORE PUSH1 0x32 PUSH1 0x4 MSTORE PUSH1 0x24 PUSH1 0x0 REVERT JUMPDEST PUSH1 0x0 DUP1 PUSH1 0x0 PUSH1 0x60 DUP5 DUP7 SUB SLT ISZERO PUSH2 0x88B JUMPI PUSH1 0x0 DUP1 REVERT JUMPDEST DUP4 MLOAD SWAP3 POP PUSH1 0x20 DUP5 ADD MLOAD PUSH2 0x89D DUP2 PUSH2 0x71A JUMP JUMPDEST PUSH1 0x40 DUP6 ADD MLOAD SWAP1 SWAP3 POP PUSH8 0xFFFFFFFFFFFFFFFF DUP2 AND DUP2 EQ PUSH2 0x8BB JUMPI PUSH1 0x0 DUP1 REVERT JUMPDEST DUP1 SWAP2 POP POP SWAP3 POP SWAP3 POP SWAP3 JUMP JUMPDEST DUP1 DUP3 ADD DUP1 DUP3 GT ISZERO PUSH2 0x1F5 JUMPI PUSH2 0x1F5 PUSH2 0x837 JUMP JUMPDEST DUP1 DUP3 MUL DUP2 ISZERO DUP3 DUP3 DIV DUP5 EQ OR PUSH2 0x1F5 JUMPI PUSH2 0x1F5 PUSH2 0x837 JUMP JUMPDEST DUP1 DUP3 ADD DUP3 DUP2 SLT PUSH1 0x0 DUP4 SLT DUP1 ISZERO DUP3 AND DUP3 ISZERO DUP3 AND OR ISZERO PUSH2 0x910 JUMPI PUSH2 0x910 PUSH2 0x837 JUMP JUMPDEST POP POP SWAP3 SWAP2 POP POP JUMP JUMPDEST PUSH4 0x4E487B71 PUSH1 0xE0 SHL PUSH1 0x0 MSTORE PUSH1 0x12 PUSH1 0x4 MSTORE PUSH1 0x24 PUSH1 0x0 REVERT JUMPDEST PUSH1 0x0 DUP3 PUSH2 0x93D JUMPI PUSH2 0x93D PUSH2 0x918 JUMP JUMPDEST POP DIV SWAP1 JUMP JUMPDEST PUSH8 0xFFFFFFFFFFFFFFFF DUP3 DUP2 AND DUP3 DUP3 AND SUB SWAP1 DUP1 DUP3 GT ISZERO PUSH2 0x963 JUMPI PUSH2 0x963 PUSH2 0x837 JUMP JUMPDEST POP SWAP3 SWAP2 POP POP JUMP JUMPDEST PUSH1 0x0 PUSH8 0xFFFFFFFFFFFFFFFF DUP1 DUP5 AND DUP1 PUSH2 0x985 JUMPI PUSH2 0x985 PUSH2 0x918 JUMP JUMPDEST SWAP3 AND SWAP2 SWAP1 SWAP2 DIV SWAP3 SWAP2 POP POP JUMP JUMPDEST DUP2 DUP2 SUB PUSH1 0x0 DUP4 SLT DUP1 ISZERO DUP4 DUP4 SGT AND DUP4 DUP4 SLT DUP3 AND OR ISZERO PUSH2 0x963 JUMPI PUSH2 0x963 PUSH2 0x837 JUMP INVALID LOG2 PUSH5 0x6970667358 0x22 SLT KECCAK256 0xE4 0x2C 0xC7 MSTORE DUP15 0xDE 0xD0 0x26 SSTORE 0x2D 0xB7 PUSH11 0x8F33BBBF6E46CAA709245D EXTCODESIZE SWAP3 PUSH7 0x64D19FB1977164 PUSH20 0x6F6C634300081800330000000000000000000000 "},"methodIdentifiers":{"getPaymentCount(address)":"4feb20ff","getScore(address)":"d47875d0","isEligible(address,uint8)":"bfcbd230","paymentRecordNFT()":"6372bbff","snapshotScore(address)":"dee0ef4f"}}}}}