{
  "_format": "hh-sol-artifact-1",
  "contractName": "EscrowContract",
  "sourceName": "contracts/EscrowContract.sol",
  "abi": [
    {
      "inputs": [
        {
          "internalType": "address",
          "name": "leaseRegistryAddress",
          "type": "address"
        },
        {
          "internalType": "address",
          "name": "paymentRecordNFTAddress",
          "type": "address"
        }
      ],
      "stateMutability": "nonpayable",
      "type": "constructor"
    },
    {
      "anonymous": false,
      "inputs": [
        {
          "indexed": true,
          "internalType": "bytes32",
          "name": "leaseId",
          "type": "bytes32"
        },
        {
          "indexed": true,
          "internalType": "address",
          "name": "landlord",
          "type": "address"
        },
        {
          "indexed": false,
          "internalType": "uint256",
          "name": "nativeAmount",
          "type": "uint256"
        },
        {
          "indexed": false,
          "internalType": "bytes32",
          "name": "paymentRecordId",
          "type": "bytes32"
        }
      ],
      "name": "FundsReleased",
      "type": "event"
    },
    {
      "anonymous": false,
      "inputs": [
        {
          "indexed": true,
          "internalType": "bytes32",
          "name": "leaseId",
          "type": "bytes32"
        },
        {
          "indexed": true,
          "internalType": "address",
          "name": "tenant",
          "type": "address"
        },
        {
          "indexed": false,
          "internalType": "uint256",
          "name": "amountUsdCents",
          "type": "uint256"
        },
        {
          "indexed": false,
          "internalType": "bytes32",
          "name": "paymentRecordId",
          "type": "bytes32"
        }
      ],
      "name": "RentDeposited",
      "type": "event"
    },
    {
      "inputs": [
        {
          "internalType": "bytes32",
          "name": "leaseId",
          "type": "bytes32"
        },
        {
          "internalType": "uint256",
          "name": "amountUsdCents",
          "type": "uint256"
        },
        {
          "internalType": "uint8",
          "name": "statusCode",
          "type": "uint8"
        },
        {
          "internalType": "bytes32",
          "name": "txRef",
          "type": "bytes32"
        }
      ],
      "name": "depositRent",
      "outputs": [
        {
          "internalType": "bytes32",
          "name": "paymentRecordId",
          "type": "bytes32"
        },
        {
          "internalType": "uint256",
          "name": "tokenId",
          "type": "uint256"
        }
      ],
      "stateMutability": "payable",
      "type": "function"
    },
    {
      "inputs": [
        {
          "internalType": "bytes32",
          "name": "leaseId",
          "type": "bytes32"
        }
      ],
      "name": "getLease",
      "outputs": [
        {
          "internalType": "address",
          "name": "tenant",
          "type": "address"
        },
        {
          "internalType": "address",
          "name": "landlord",
          "type": "address"
        },
        {
          "internalType": "uint256",
          "name": "monthlyRentUsdCents",
          "type": "uint256"
        },
        {
          "internalType": "uint8",
          "name": "dueDay",
          "type": "uint8"
        },
        {
          "internalType": "uint64",
          "name": "startTimestamp",
          "type": "uint64"
        },
        {
          "internalType": "bool",
          "name": "active",
          "type": "bool"
        }
      ],
      "stateMutability": "view",
      "type": "function"
    },
    {
      "inputs": [],
      "name": "leaseRegistry",
      "outputs": [
        {
          "internalType": "contract ILeaseRegistry",
          "name": "",
          "type": "address"
        }
      ],
      "stateMutability": "view",
      "type": "function"
    },
    {
      "inputs": [],
      "name": "paymentRecordNFT",
      "outputs": [
        {
          "internalType": "contract IPaymentRecordMinter",
          "name": "",
          "type": "address"
        }
      ],
      "stateMutability": "view",
      "type": "function"
    }
  ],
  "bytecode": "0x60c060405234801561001057600080fd5b5060405161096c38038061096c83398101604081905261002f91610113565b6001600160a01b03821661008a5760405162461bcd60e51b815260206004820152601760248201527f6c6561736520726567697374727920726571756972656400000000000000000060448201526064015b60405180910390fd5b6001600160a01b0381166100e05760405162461bcd60e51b815260206004820152601460248201527f7061796d656e74206e66742072657175697265640000000000000000000000006044820152606401610081565b6001600160a01b039182166080521660a052610146565b80516001600160a01b038116811461010e57600080fd5b919050565b6000806040838503121561012657600080fd5b61012f836100f7565b915061013d602084016100f7565b90509250929050565b60805160a0516107ed61017f6000396000818160c2015261059301526000818161010e01528181610163015261020f01526107ed6000f3fe60806040526004361061003f5760003560e01c80632d54ad30146100445780636372bbff146100b0578063ba622a99146100fc578063db8b612614610130575b600080fd5b34801561005057600080fd5b5061006461005f366004610664565b610158565b604080516001600160a01b0397881681529690951660208701529385019290925260ff16606084015267ffffffffffffffff166080830152151560a082015260c0015b60405180910390f35b3480156100bc57600080fd5b506100e47f000000000000000000000000000000000000000000000000000000000000000081565b6040516001600160a01b0390911681526020016100a7565b34801561010857600080fd5b506100e47f000000000000000000000000000000000000000000000000000000000000000081565b61014361013e36600461068f565b610204565b604080519283526020830191909152016100a7565b6000806000806000807f00000000000000000000000000000000000000000000000000000000000000006001600160a01b0316632d54ad30886040518263ffffffff1660e01b81526004016101af91815260200190565b60c060405180830381865afa1580156101cc573d6000803e3d6000fd5b505050506040513d601f19601f820116820180604052508101906101f091906106ea565b949c939b5091995097509550909350915050565b6000806000806000807f00000000000000000000000000000000000000000000000000000000000000006001600160a01b0316632d54ad308b6040518263ffffffff1660e01b815260040161025b91815260200190565b60c060405180830381865afa158015610278573d6000803e3d6000fd5b505050506040513d601f19601f8201168201806040525081019061029c91906106ea565b95505050935093509350806102e95760405162461bcd60e51b815260206004820152600e60248201526d696e616374697665206c6561736560901b60448201526064015b60405180910390fd5b336001600160a01b0385161461032f5760405162461bcd60e51b815260206004820152600b60248201526a1bdb9b1e481d195b985b9d60aa1b60448201526064016102e0565b600089116103715760405162461bcd60e51b815260206004820152600f60248201526e185b5bdd5b9d081c995c5d5a5c9959608a1b60448201526064016102e0565b8760ff166001148061038657508760ff166002145b6103c35760405162461bcd60e51b815260206004820152600e60248201526d696e76616c69642073746174757360901b60448201526064016102e0565b6103ce826002610773565b8911156104135760405162461bcd60e51b8152602060048201526013602482015272616d6f756e74206f7574206f662072616e676560681b60448201526064016102e0565b60408051602081018c90526bffffffffffffffffffffffff193360601b1691810191909152605481018a90526001600160f81b031960f88a901b1660748201526075810188905242609582015260b50160408051601f1981840301815282825280516020918201208c8452908301819052975033918c917fe69f9287ca54cac6747055ba7cf6ee4002728706632dd94d40246d4130f28898910160405180910390a33415610559576000836001600160a01b03163460405160006040518083038185875af1925050503d8060008114610508576040519150601f19603f3d011682016040523d82523d6000602084013e61050d565b606091505b50509050806105575760405162461bcd60e51b81526020600482015260166024820152751b985d1a5d99481d1c985b9cd9995c8819985a5b195960521b60448201526064016102e0565b505b6040516370bc529d60e11b815233600482015260248101879052604481018b9052606481018a905260ff8916608482015260a481018890527f00000000000000000000000000000000000000000000000000000000000000006001600160a01b03169063e178a53a9060c4016020604051808303816000875af11580156105e4573d6000803e3d6000fd5b505050506040513d601f19601f82011682018060405250810190610608919061079e565b9450826001600160a01b03168a7ffb05a530fff613a49dc9c650053b0cf9c35a08279d406a3156cf42997d0c6c27348960405161064f929190918252602082015260400190565b60405180910390a35050505094509492505050565b60006020828403121561067657600080fd5b5035919050565b60ff8116811461068c57600080fd5b50565b600080600080608085870312156106a557600080fd5b843593506020850135925060408501356106be8161067d565b9396929550929360600135925050565b80516001600160a01b03811681146106e557600080fd5b919050565b60008060008060008060c0878903121561070357600080fd5b61070c876106ce565b955061071a602088016106ce565b94506040870151935060608701516107318161067d565b608088015190935067ffffffffffffffff8116811461074f57600080fd5b60a0880151909250801515811461076557600080fd5b809150509295509295509295565b808202811582820484141761079857634e487b7160e01b600052601160045260246000fd5b92915050565b6000602082840312156107b057600080fd5b505191905056fea26469706673582212202bb43d6f88c0d101d5133a7c0611c652188f2460febad33fed56622beb52209564736f6c63430008180033",
  "linkReferences": {},
  "deployedLinkReferences": {}
}